{
  "contractName": "Keep3rPriceOracle",
  "abi": [
    {
      "inputs": [
        {
          "internalType": "bool",
          "name": "sushiSwap",
          "type": "bool"
        }
      ],
      "stateMutability": "nonpayable",
      "type": "constructor"
    },
    {
      "inputs": [],
      "name": "WETH_ADDRESS",
      "outputs": [
        {
          "internalType": "address",
          "name": "",
          "type": "address"
        }
      ],
      "stateMutability": "view",
      "type": "function"
    },
    {
      "inputs": [],
      "name": "oracle",
      "outputs": [
        {
          "internalType": "contract Keep3rV1Oracle",
          "name": "",
          "type": "address"
        }
      ],
      "stateMutability": "view",
      "type": "function"
    },
    {
      "inputs": [
        {
          "internalType": "contract CToken",
          "name": "cToken",
          "type": "address"
        }
      ],
      "name": "getUnderlyingPrice",
      "outputs": [
        {
          "internalType": "uint256",
          "name": "",
          "type": "uint256"
        }
      ],
      "stateMutability": "view",
      "type": "function"
    },
    {
      "inputs": [
        {
          "internalType": "address",
          "name": "underlying",
          "type": "address"
        }
      ],
      "name": "price",
      "outputs": [
        {
          "internalType": "uint256",
          "name": "",
          "type": "uint256"
        }
      ],
      "stateMutability": "view",
      "type": "function"
    }
  ],
  "bytecode": "0x6080604052600080546001600160a01b0319167373353801921417f465377c8d898c6f4c0270282c17905534801561003657600080fd5b506040516106413803806106418339818101604052602081101561005957600080fd5b50518061007a577373353801921417f465377c8d898c6f4c0270282c610090565b73f67ab1c914dee06ba0f264031885ea7b276a7cda5b600080546001600160a01b03929092166001600160a01b03199092169190911790555061057f806100c26000396000f3fe608060405234801561001057600080fd5b506004361061004c5760003560e01c8063040141e5146100515780637dc0d1d014610075578063aea910781461007d578063fc57d4df146100b5575b600080fd5b6100596100db565b604080516001600160a01b039092168252519081900360200190f35b6100596100f3565b6100a36004803603602081101561009357600080fd5b50356001600160a01b0316610102565b60408051918252519081900360200190f35b6100a3600480360360208110156100cb57600080fd5b50356001600160a01b0316610115565b73c02aaa39b223fe8d0a0e5c4f27ead9083c756cc281565b6000546001600160a01b031681565b600061010d8261029e565b90505b919050565b6000816001600160a01b031663ac784ddc6040518163ffffffff1660e01b815260040160206040518083038186803b15801561015057600080fd5b505afa158015610164573d6000803e3d6000fd5b505050506040513d602081101561017a57600080fd5b5051156101905750670de0b6b3a7640000610110565b6000826001600160a01b0316636f307dc36040518163ffffffff1660e01b815260040160206040518083038186803b1580156101cb57600080fd5b505afa1580156101df573d6000803e3d6000fd5b505050506040513d60208110156101f557600080fd5b50516040805163313ce56760e01b815290519192506000916001600160a01b0384169163313ce567916004808301926020929190829003018186803b15801561023d57600080fd5b505afa158015610251573d6000803e3d6000fd5b505050506040513d602081101561026757600080fd5b505160ff16600a0a905061029681610290670de0b6b3a764000061028a8661029e565b906103e7565b90610449565b949350505050565b60006001600160a01b03821673c02aaa39b223fe8d0a0e5c4f27ead9083c756cc214156102d45750670de0b6b3a7640000610110565b6000826001600160a01b031663313ce5676040518163ffffffff1660e01b815260040160206040518083038186803b15801561030f57600080fd5b505afa158015610323573d6000803e3d6000fd5b505050506040513d602081101561033957600080fd5b5051600054604080516353ae9ce160e11b81526001600160a01b03878116600483015260ff909416600a0a6024820181905273c02aaa39b223fe8d0a0e5c4f27ead9083c756cc260448301529151919450929091169163a75d39c2916064808301926020929190829003018186803b1580156103b457600080fd5b505afa1580156103c8573d6000803e3d6000fd5b505050506040513d60208110156103de57600080fd5b50519392505050565b6000826103f657506000610443565b8282028284828161040357fe5b04146104405760405162461bcd60e51b81526004018080602001828103825260218152602001806105296021913960400191505060405180910390fd5b90505b92915050565b600061044083836040518060400160405280601a81526020017f536166654d6174683a206469766973696f6e206279207a65726f000000000000815250600081836105125760405162461bcd60e51b81526004018080602001828103825283818151815260200191508051906020019080838360005b838110156104d75781810151838201526020016104bf565b50505050905090810190601f1680156105045780820380516001836020036101000a031916815260200191505b509250505060405180910390fd5b50600083858161051e57fe5b049594505050505056fe536166654d6174683a206d756c7469706c69636174696f6e206f766572666c6f77a2646970667358221220950714c65fd1f5d2ba04543f97bae886ad4b0e504842367a55121319047d54be64736f6c634300060c0033",
  "immutableReferences": {},
  "source": "pragma solidity 0.6.12;\r\n\r\nimport \"@openzeppelin/contracts-upgradeable/math/SafeMathUpgradeable.sol\";\r\nimport \"@openzeppelin/contracts-upgradeable/token/ERC20/ERC20Upgradeable.sol\";\r\n\r\nimport \"../external/compound/PriceOracle.sol\";\r\nimport \"../external/compound/CToken.sol\";\r\nimport \"../external/compound/CErc20.sol\";\r\n\r\nimport \"../external/keep3r/Keep3rV1Oracle.sol\";\r\n\r\nimport \"./BasePriceOracle.sol\";\r\n\r\n/**\r\n * @title Keep3rPriceOracle\r\n * @notice Returns prices from `Keep3rV1Oracle` or `SushiswapV1Oracle`.\r\n * @dev Implements `PriceOracle`.\r\n * @author David Lucid <david@rari.capital> (https://github.com/davidlucid)\r\n */\r\ncontract Keep3rPriceOracle is PriceOracle, BasePriceOracle {\r\n    using SafeMathUpgradeable for uint256;\r\n\r\n    /**\r\n     * @dev Constructor that sets the Keep3rV1Oracle or SushiswapV1Oracle.\r\n     */\r\n    constructor (bool sushiSwap) public {\r\n        oracle = Keep3rV1Oracle(sushiSwap ? 0xf67Ab1c914deE06Ba0F264031885Ea7B276a7cDa : 0x73353801921417F465377c8d898c6f4C0270282C);\r\n    }\r\n\r\n    /**\r\n     * @dev mStable imUSD ERC20 token contract object.\r\n     */\r\n    Keep3rV1Oracle public oracle = Keep3rV1Oracle(0x73353801921417F465377c8d898c6f4C0270282C);\r\n\r\n    /**\r\n     * @dev WETH token contract address.\r\n     */\r\n    address constant public WETH_ADDRESS = 0xC02aaA39b223FE8D0A0e5C4F27eAD9083C756Cc2;\r\n    \r\n    /**\r\n     * @dev Returns the price in ETH of the token underlying `cToken` (implements `PriceOracle`).\r\n     */\r\n    function getUnderlyingPrice(CToken cToken) external override view returns (uint) {\r\n        // Return 1e18 for ETH\r\n        if (cToken.isCEther()) return 1e18;\r\n\r\n        // Get underlying ERC20 token address\r\n        address underlying = CErc20(address(cToken)).underlying();\r\n\r\n        // Get price, format, and return\r\n        uint256 baseUnit = 10 ** uint256(ERC20Upgradeable(underlying).decimals());\r\n        return _price(underlying).mul(1e18).div(baseUnit);\r\n    }\r\n    \r\n    /**\r\n     * @dev Internal function returning the price in ETH of `underlying`.\r\n     */\r\n    function _price(address underlying) internal view returns (uint) {\r\n        // Return 1e18 for WETH\r\n        if (underlying == WETH_ADDRESS) return 1e18;\r\n\r\n        // Call Keep3r for ERC20/ETH price and return\r\n        uint256 baseUnit = 10 ** uint256(ERC20Upgradeable(underlying).decimals());\r\n        return oracle.current(underlying, baseUnit, WETH_ADDRESS);\r\n    }\r\n\r\n    /**\r\n     * @dev Returns the price in ETH of `underlying` (implements `BasePriceOracle`).\r\n     */\r\n    function price(address underlying) external override view returns (uint) {\r\n        return _price(underlying);\r\n    }\r\n}\r\n",
  "sourcePath": "C:/Users/david/Dropbox/Rari/v1/fuse-contracts/contracts/oracles/Keep3rPriceOracle.sol",
  "compiler": {
    "name": "solc",
    "version": "0.6.12+commit.27d51765.Emscripten.clang"
  },
  "schemaVersion": "3.3.3",
  "updatedAt": "2021-03-09T04:23:29.147Z",
  "devdoc": {
    "author": "David Lucid <david@rari.capital> (https://github.com/davidlucid)",
    "details": "Implements `PriceOracle`.",
    "kind": "dev",
    "methods": {
      "constructor": {
        "details": "Constructor that sets the Keep3rV1Oracle or SushiswapV1Oracle."
      },
      "getUnderlyingPrice(address)": {
        "details": "Returns the price in ETH of the token underlying `cToken` (implements `PriceOracle`)."
      },
      "price(address)": {
        "details": "Returns the price in ETH of `underlying` (implements `BasePriceOracle`)."
      }
    },
    "stateVariables": {
      "WETH_ADDRESS": {
        "details": "WETH token contract address."
      },
      "oracle": {
        "details": "mStable imUSD ERC20 token contract object."
      }
    },
    "title": "Keep3rPriceOracle",
    "version": 1
  },
  "userdoc": {
    "kind": "user",
    "methods": {},
    "notice": "Returns prices from `Keep3rV1Oracle` or `SushiswapV1Oracle`.",
    "version": 1
  }
}