{
  "contractName": "MasterPriceOracle",
  "abi": [
    {
      "anonymous": false,
      "inputs": [
        {
          "indexed": false,
          "internalType": "address",
          "name": "oldAdmin",
          "type": "address"
        },
        {
          "indexed": false,
          "internalType": "address",
          "name": "newAdmin",
          "type": "address"
        }
      ],
      "name": "NewAdmin",
      "type": "event"
    },
    {
      "anonymous": false,
      "inputs": [
        {
          "indexed": false,
          "internalType": "address",
          "name": "oldOracle",
          "type": "address"
        },
        {
          "indexed": false,
          "internalType": "address",
          "name": "newOracle",
          "type": "address"
        }
      ],
      "name": "NewDefaultOracle",
      "type": "event"
    },
    {
      "anonymous": false,
      "inputs": [
        {
          "indexed": false,
          "internalType": "address",
          "name": "underlying",
          "type": "address"
        },
        {
          "indexed": false,
          "internalType": "address",
          "name": "oldOracle",
          "type": "address"
        },
        {
          "indexed": false,
          "internalType": "address",
          "name": "newOracle",
          "type": "address"
        }
      ],
      "name": "NewOracle",
      "type": "event"
    },
    {
      "inputs": [],
      "name": "admin",
      "outputs": [
        {
          "internalType": "address",
          "name": "",
          "type": "address"
        }
      ],
      "stateMutability": "view",
      "type": "function",
      "constant": true
    },
    {
      "inputs": [],
      "name": "canAdminOverwrite",
      "outputs": [
        {
          "internalType": "bool",
          "name": "",
          "type": "bool"
        }
      ],
      "stateMutability": "view",
      "type": "function",
      "constant": true
    },
    {
      "inputs": [],
      "name": "defaultOracle",
      "outputs": [
        {
          "internalType": "contract PriceOracle",
          "name": "",
          "type": "address"
        }
      ],
      "stateMutability": "view",
      "type": "function",
      "constant": true
    },
    {
      "inputs": [
        {
          "internalType": "address",
          "name": "",
          "type": "address"
        }
      ],
      "name": "oracles",
      "outputs": [
        {
          "internalType": "contract PriceOracle",
          "name": "",
          "type": "address"
        }
      ],
      "stateMutability": "view",
      "type": "function",
      "constant": true
    },
    {
      "inputs": [
        {
          "internalType": "address[]",
          "name": "underlyings",
          "type": "address[]"
        },
        {
          "internalType": "contract PriceOracle[]",
          "name": "_oracles",
          "type": "address[]"
        },
        {
          "internalType": "contract PriceOracle",
          "name": "_defaultOracle",
          "type": "address"
        },
        {
          "internalType": "address",
          "name": "_admin",
          "type": "address"
        },
        {
          "internalType": "bool",
          "name": "_canAdminOverwrite",
          "type": "bool"
        }
      ],
      "name": "initialize",
      "outputs": [],
      "stateMutability": "nonpayable",
      "type": "function"
    },
    {
      "inputs": [
        {
          "internalType": "address[]",
          "name": "underlyings",
          "type": "address[]"
        },
        {
          "internalType": "contract PriceOracle[]",
          "name": "_oracles",
          "type": "address[]"
        }
      ],
      "name": "add",
      "outputs": [],
      "stateMutability": "nonpayable",
      "type": "function"
    },
    {
      "inputs": [
        {
          "internalType": "contract PriceOracle",
          "name": "newOracle",
          "type": "address"
        }
      ],
      "name": "setDefaultOracle",
      "outputs": [],
      "stateMutability": "nonpayable",
      "type": "function"
    },
    {
      "inputs": [
        {
          "internalType": "address",
          "name": "newAdmin",
          "type": "address"
        }
      ],
      "name": "changeAdmin",
      "outputs": [],
      "stateMutability": "nonpayable",
      "type": "function"
    },
    {
      "inputs": [
        {
          "internalType": "contract CToken",
          "name": "cToken",
          "type": "address"
        }
      ],
      "name": "getUnderlyingPrice",
      "outputs": [
        {
          "internalType": "uint256",
          "name": "",
          "type": "uint256"
        }
      ],
      "stateMutability": "view",
      "type": "function",
      "constant": true
    },
    {
      "inputs": [
        {
          "internalType": "address",
          "name": "underlying",
          "type": "address"
        }
      ],
      "name": "price",
      "outputs": [
        {
          "internalType": "uint256",
          "name": "",
          "type": "uint256"
        }
      ],
      "stateMutability": "view",
      "type": "function",
      "constant": true
    }
  ],
  "bytecode": "0x608060405234801561001057600080fd5b50610d66806100206000396000f3fe608060405234801561001057600080fd5b506004361061009e5760003560e01c8063addd509911610066578063addd509914610306578063aea910781461032c578063c44014d214610364578063f851a4401461038a578063fc57d4df146103925761009e565b8063278aa146146100a3578063656b0fd1146101e257806380dce169146101fe5780638f283970146102225780639c9192c614610248575b600080fd5b6101e0600480360360a08110156100b957600080fd5b810190602081018135600160201b8111156100d357600080fd5b8201836020820111156100e557600080fd5b803590602001918460208302840111600160201b8311171561010657600080fd5b9190808060200260200160405190810160405280939291908181526020018383602002808284376000920191909152509295949360208101935035915050600160201b81111561015557600080fd5b82018360208201111561016757600080fd5b803590602001918460208302840111600160201b8311171561018857600080fd5b919080806020026020016040519081016040528093929190818152602001838360200280828437600092019190915250929550506001600160a01b038335811694506020840135169260400135151591506103b89050565b005b6101ea610555565b604080519115158252519081900360200190f35b610206610565565b604080516001600160a01b039092168252519081900360200190f35b6101e06004803603602081101561023857600080fd5b50356001600160a01b0316610574565b6101e06004803603604081101561025e57600080fd5b810190602081018135600160201b81111561027857600080fd5b82018360208201111561028a57600080fd5b803590602001918460208302840111600160201b831117156102ab57600080fd5b919390929091602081019035600160201b8111156102c857600080fd5b8201836020820111156102da57600080fd5b803590602001918460208302840111600160201b831117156102fb57600080fd5b509092509050610631565b6102066004803603602081101561031c57600080fd5b50356001600160a01b031661080d565b6103526004803603602081101561034257600080fd5b50356001600160a01b0316610828565b60408051918252519081900360200190f35b6101e06004803603602081101561037a57600080fd5b50356001600160a01b031661099b565b610206610a58565b610352600480360360208110156103a857600080fd5b50356001600160a01b0316610a67565b600054610100900460ff16806103d157506103d1610c09565b806103df575060005460ff16155b61041a5760405162461bcd60e51b815260040180806020018281038252602e815260200180610cca602e913960400191505060405180910390fd5b600054610100900460ff16158015610445576000805460ff1961ff0019909116610100171660011790555b84518651146104855760405162461bcd60e51b8152600401808060200182810382526025815260200180610ca56025913960400191505060405180910390fd5b60005b86518110156104f95785818151811061049d57fe5b6020026020010151600160008984815181106104b557fe5b6020908102919091018101516001600160a01b0390811683529082019290925260400160002080546001600160a01b03191692909116919091179055600101610488565b50600280546001600160a01b038087166001600160a01b03199283161790925560038054851515600160a01b0260ff60a01b19948816919093161792909216179055801561054d576000805461ff00191690555b505050505050565b600354600160a01b900460ff1681565b6002546001600160a01b031681565b6003546001600160a01b031633146105ce576040805162461bcd60e51b815260206004820152601860248201527729b2b73232b91034b9903737ba103a34329030b236b4b71760411b604482015290519081900360640190fd5b600380546001600160a01b038381166001600160a01b0319831681179093556040805191909216808252602082019390935281517ff9ffabca9c8276e99321725bcb43fb076a6c66a54b7f21c4e8146d8519b417dc929181900390910190a15050565b6003546001600160a01b0316331461068b576040805162461bcd60e51b815260206004820152601860248201527729b2b73232b91034b9903737ba103a34329030b236b4b71760411b604482015290519081900360640190fd5b821580159061069957508281145b6106d45760405162461bcd60e51b8152600401808060200182810382526038815260200180610c6d6038913960400191505060405180910390fd5b60005b838110156108065760008585838181106106ed57fe5b602090810292909201356001600160a01b03908116600081815260019094526040909320546003549394501691600160a01b900460ff169050610770576001600160a01b038116156107705760405162461bcd60e51b815260040180806020018281038252604c815260200180610c21604c913960600191505060405180910390fd5b600085858581811061077e57fe5b6001600160a01b0386811660008181526001602090815260409182902080546001600160a01b03191695820297909701358416948517909655805191825291871694810194909452838101829052519093507f10e7c87bebf274db4de1b5f9fc731d6f83096e550bd871b681314578404d3126928190036060019150a15050506001016106d7565b5050505050565b6001602052600090815260409020546001600160a01b031681565b600073c02aaa39b223fe8d0a0e5c4f27ead9083c756cc26001600160a01b038316141561085e5750670de0b6b3a7640000610996565b6001600160a01b0380831660009081526001602052604090205416801561090157806001600160a01b031663aea91078846040518263ffffffff1660e01b815260040180826001600160a01b0316815260200191505060206040518083038186803b1580156108cc57600080fd5b505afa1580156108e0573d6000803e3d6000fd5b505050506040513d60208110156108f657600080fd5b505191506109969050565b6002546001600160a01b03161561095f57600254604080516315d5220f60e31b81526001600160a01b0386811660048301529151919092169163aea91078916024808301926020929190829003018186803b1580156108cc57600080fd5b60405162461bcd60e51b8152600401808060200182810382526039815260200180610cf86039913960400191505060405180910390fd5b919050565b6003546001600160a01b031633146109f5576040805162461bcd60e51b815260206004820152601860248201527729b2b73232b91034b9903737ba103a34329030b236b4b71760411b604482015290519081900360640190fd5b600280546001600160a01b038381166001600160a01b0319831681179093556040805191909216808252602082019390935281517f0df2d61fdd201e9633368dca495e2c469e36c48039263448dd8a2a954c19ef1a929181900390910190a15050565b6003546001600160a01b031681565b600080826001600160a01b0316636f307dc36040518163ffffffff1660e01b815260040160206040518083038186803b158015610aa357600080fd5b505afa158015610ab7573d6000803e3d6000fd5b505050506040513d6020811015610acd57600080fd5b5051905073c02aaa39b223fe8d0a0e5c4f27ead9083c756cc26001600160a01b0382161415610b0757670de0b6b3a7640000915050610996565b6001600160a01b03808216600090815260016020526040902054168015610bab57806001600160a01b031663fc57d4df856040518263ffffffff1660e01b815260040180826001600160a01b0316815260200191505060206040518083038186803b158015610b7557600080fd5b505afa158015610b89573d6000803e3d6000fd5b505050506040513d6020811015610b9f57600080fd5b50519250610996915050565b6002546001600160a01b03161561095f576002546040805163fc57d4df60e01b81526001600160a01b0387811660048301529151919092169163fc57d4df916024808301926020929190829003018186803b158015610b7557600080fd5b6000610c1430610c1a565b15905090565b3b15159056fe41646d696e2063616e6e6f74206f7665727772697465206578697374696e672061737369676e6d656e7473206f66206f7261636c657320746f20756e6465726c79696e6720746f6b656e732e4c656e67746873206f6620626f746820617272617973206d75737420626520657175616c20616e642067726561746572207468616e20302e4c656e67746873206f6620626f746820617272617973206d75737420626520657175616c2e496e697469616c697a61626c653a20636f6e747261637420697320616c726561647920696e697469616c697a65645072696365206f7261636c65206e6f7420666f756e6420666f72207468697320756e6465726c79696e6720746f6b656e20616464726573732ea2646970667358221220209d946e42e87d2a929637619761d879a9f9f1c1254816abb7f4375c9b393e6364736f6c634300060c0033",
  "immutableReferences": {},
  "source": "// SPDX-License-Identifier: UNLICENSED\r\npragma solidity 0.6.12;\r\n\r\nimport \"@openzeppelin/contracts-upgradeable/proxy/Initializable.sol\";\r\n\r\nimport \"../external/compound/PriceOracle.sol\";\r\nimport \"../external/compound/CToken.sol\";\r\nimport \"../external/compound/CErc20.sol\";\r\n\r\nimport \"./BasePriceOracle.sol\";\r\n\r\n/**\r\n * @title MasterPriceOracle\r\n * @notice Use a combination of price oracles.\r\n * @dev Implements `PriceOracle`.\r\n * @author David Lucid <david@rari.capital> (https://github.com/davidlucid)\r\n */\r\ncontract MasterPriceOracle is Initializable, PriceOracle, BasePriceOracle {\r\n    /**\r\n     * @dev Maps underlying token addresses to `PriceOracle` contracts (can be `BasePriceOracle` contracts too).\r\n     */\r\n    mapping(address => PriceOracle) public oracles;\r\n\r\n    /**\r\n     * @dev Default/fallback `PriceOracle`.\r\n     */\r\n    PriceOracle public defaultOracle;\r\n\r\n    /**\r\n     * @dev The administrator of this `MasterPriceOracle`.\r\n     */\r\n    address public admin;\r\n\r\n    /**\r\n     * @dev Controls if `admin` can overwrite existing assignments of oracles to underlying tokens.\r\n     */\r\n    bool public canAdminOverwrite;\r\n\r\n    /**\r\n     * @dev Event emitted when `admin` is changed.\r\n     */\r\n    event NewAdmin(address oldAdmin, address newAdmin);\r\n\r\n    /**\r\n     * @dev Event emitted when the default oracle is changed.\r\n     */\r\n    event NewDefaultOracle(address oldOracle, address newOracle);\r\n\r\n    /**\r\n     * @dev Event emitted when an underlying token's oracle is changed.\r\n     */\r\n    event NewOracle(address underlying, address oldOracle, address newOracle);\r\n\r\n    /**\r\n     * @dev Constructor to initialize state variables.\r\n     * @param underlyings The underlying ERC20 token addresses to link to `_oracles`.\r\n     * @param _oracles The `PriceOracle` contracts to be assigned to `underlyings`.\r\n     * @param _defaultOracle The default `PriceOracle` contract to use.\r\n     * @param _admin The admin who can assign oracles to underlying tokens.\r\n     * @param _canAdminOverwrite Controls if `admin` can overwrite existing assignments of oracles to underlying tokens.\r\n     */\r\n    function initialize(address[] memory underlyings, PriceOracle[] memory _oracles, PriceOracle _defaultOracle, address _admin, bool _canAdminOverwrite) external initializer {\r\n        // Input validation\r\n        require(underlyings.length == _oracles.length, \"Lengths of both arrays must be equal.\");\r\n\r\n        // Initialize state variables\r\n        for (uint256 i = 0; i < underlyings.length; i++) oracles[underlyings[i]] = _oracles[i];\r\n        defaultOracle = _defaultOracle;\r\n        admin = _admin;\r\n        canAdminOverwrite = _canAdminOverwrite;\r\n    }\r\n\r\n    /**\r\n     * @dev Sets `_oracles` for `underlyings`.\r\n     */\r\n    function add(address[] calldata underlyings, PriceOracle[] calldata _oracles) external onlyAdmin {\r\n        // Input validation\r\n        require(underlyings.length > 0 && underlyings.length == _oracles.length, \"Lengths of both arrays must be equal and greater than 0.\");\r\n\r\n        // Assign oracles to underlying tokens\r\n        for (uint256 i = 0; i < underlyings.length; i++) {\r\n            address underlying = underlyings[i];\r\n            address oldOracle = address(oracles[underlying]);\r\n            if (!canAdminOverwrite) require(oldOracle == address(0), \"Admin cannot overwrite existing assignments of oracles to underlying tokens.\");\r\n            PriceOracle newOracle = _oracles[i];\r\n            oracles[underlying] = newOracle;\r\n            emit NewOracle(underlying, oldOracle, address(newOracle));\r\n        }\r\n    }\r\n\r\n    /**\r\n     * @dev Changes the admin and emits an event.\r\n     */\r\n    function setDefaultOracle(PriceOracle newOracle) external onlyAdmin {\r\n        PriceOracle oldOracle = defaultOracle;\r\n        defaultOracle = newOracle;\r\n        emit NewDefaultOracle(address(oldOracle), address(newOracle));\r\n    }\r\n\r\n    /**\r\n     * @dev Changes the admin and emits an event.\r\n     */\r\n    function changeAdmin(address newAdmin) external onlyAdmin {\r\n        address oldAdmin = admin;\r\n        admin = newAdmin;\r\n        emit NewAdmin(oldAdmin, newAdmin);\r\n    }\r\n\r\n    /**\r\n     * @dev Modifier that checks if `msg.sender == admin`.\r\n     */\r\n    modifier onlyAdmin {\r\n        require(msg.sender == admin, \"Sender is not the admin.\");\r\n        _;\r\n    }\r\n\r\n    /**\r\n     * @notice Returns the price in ETH of the token underlying `cToken`.\r\n     * @dev Implements the `PriceOracle` interface for Fuse pools (and Compound v2).\r\n     * @return Price in ETH of the token underlying `cToken`, scaled by `10 ** (36 - underlyingDecimals)`.\r\n     */\r\n    function getUnderlyingPrice(CToken cToken) external override view returns (uint) {\r\n        // Get underlying ERC20 token address\r\n        address underlying = address(CErc20(address(cToken)).underlying());\r\n\r\n        // Return 1e18 for WETH\r\n        if (underlying == 0xC02aaA39b223FE8D0A0e5C4F27eAD9083C756Cc2) return 1e18;\r\n\r\n        // Get underlying price from assigned oracle\r\n        PriceOracle oracle = oracles[underlying];\r\n        if (address(oracle) != address(0)) return oracle.getUnderlyingPrice(cToken);\r\n        if (address(defaultOracle) != address(0)) return defaultOracle.getUnderlyingPrice(cToken);\r\n        revert(\"Price oracle not found for this underlying token address.\");\r\n    }\r\n\r\n    /**\r\n     * @dev Attempts to return the price in ETH of `underlying` (implements `BasePriceOracle`).\r\n     */\r\n    function price(address underlying) external override view returns (uint) {\r\n        // Return 1e18 for WETH\r\n        if (underlying == 0xC02aaA39b223FE8D0A0e5C4F27eAD9083C756Cc2) return 1e18;\r\n\r\n        // Get underlying price from assigned oracle\r\n        address oracle = address(oracles[underlying]);\r\n        if (oracle != address(0)) return BasePriceOracle(oracle).price(underlying);\r\n        if (address(defaultOracle) != address(0)) return BasePriceOracle(address(defaultOracle)).price(underlying);\r\n        revert(\"Price oracle not found for this underlying token address.\");\r\n    }\r\n}\r\n",
  "sourcePath": "C:\\Users\\david\\Dropbox\\Rari\\v1\\fuse-contracts\\contracts\\oracles\\MasterPriceOracle.sol",
  "compiler": {
    "name": "solc",
    "version": "0.6.12+commit.27d51765.Emscripten.clang"
  },
  "schemaVersion": "3.2.3",
  "updatedAt": "2021-10-05T22:31:17.856Z",
  "networkType": "ethereum",
  "devdoc": {
    "author": "David Lucid <david@rari.capital> (https://github.com/davidlucid)",
    "details": "Implements `PriceOracle`.",
    "events": {
      "NewAdmin(address,address)": {
        "details": "Event emitted when `admin` is changed."
      },
      "NewDefaultOracle(address,address)": {
        "details": "Event emitted when the default oracle is changed."
      },
      "NewOracle(address,address,address)": {
        "details": "Event emitted when an underlying token's oracle is changed."
      }
    },
    "kind": "dev",
    "methods": {
      "add(address[],address[])": {
        "details": "Sets `_oracles` for `underlyings`."
      },
      "changeAdmin(address)": {
        "details": "Changes the admin and emits an event."
      },
      "getUnderlyingPrice(address)": {
        "details": "Implements the `PriceOracle` interface for Fuse pools (and Compound v2).",
        "returns": {
          "_0": "Price in ETH of the token underlying `cToken`, scaled by `10 ** (36 - underlyingDecimals)`."
        }
      },
      "initialize(address[],address[],address,address,bool)": {
        "details": "Constructor to initialize state variables.",
        "params": {
          "_admin": "The admin who can assign oracles to underlying tokens.",
          "_canAdminOverwrite": "Controls if `admin` can overwrite existing assignments of oracles to underlying tokens.",
          "_defaultOracle": "The default `PriceOracle` contract to use.",
          "_oracles": "The `PriceOracle` contracts to be assigned to `underlyings`.",
          "underlyings": "The underlying ERC20 token addresses to link to `_oracles`."
        }
      },
      "price(address)": {
        "details": "Attempts to return the price in ETH of `underlying` (implements `BasePriceOracle`)."
      },
      "setDefaultOracle(address)": {
        "details": "Changes the admin and emits an event."
      }
    },
    "stateVariables": {
      "admin": {
        "details": "The administrator of this `MasterPriceOracle`."
      },
      "canAdminOverwrite": {
        "details": "Controls if `admin` can overwrite existing assignments of oracles to underlying tokens."
      },
      "defaultOracle": {
        "details": "Default/fallback `PriceOracle`."
      },
      "oracles": {
        "details": "Maps underlying token addresses to `PriceOracle` contracts (can be `BasePriceOracle` contracts too)."
      }
    },
    "title": "MasterPriceOracle",
    "version": 1
  },
  "userdoc": {
    "kind": "user",
    "methods": {
      "getUnderlyingPrice(address)": {
        "notice": "Returns the price in ETH of the token underlying `cToken`."
      }
    },
    "notice": "Use a combination of price oracles.",
    "version": 1
  }
}