{
  "contractName": "MasterPriceOracle",
  "abi": [
    {
      "inputs": [
        {
          "internalType": "address[]",
          "name": "underlyings",
          "type": "address[]"
        },
        {
          "internalType": "contract PriceOracle[]",
          "name": "_oracles",
          "type": "address[]"
        },
        {
          "internalType": "address",
          "name": "_admin",
          "type": "address"
        },
        {
          "internalType": "bool",
          "name": "_canAdminOverwrite",
          "type": "bool"
        }
      ],
      "stateMutability": "nonpayable",
      "type": "constructor"
    },
    {
      "anonymous": false,
      "inputs": [
        {
          "indexed": false,
          "internalType": "address",
          "name": "oldAdmin",
          "type": "address"
        },
        {
          "indexed": false,
          "internalType": "address",
          "name": "newAdmin",
          "type": "address"
        }
      ],
      "name": "NewAdmin",
      "type": "event"
    },
    {
      "inputs": [],
      "name": "admin",
      "outputs": [
        {
          "internalType": "address",
          "name": "",
          "type": "address"
        }
      ],
      "stateMutability": "view",
      "type": "function"
    },
    {
      "inputs": [],
      "name": "canAdminOverwrite",
      "outputs": [
        {
          "internalType": "bool",
          "name": "",
          "type": "bool"
        }
      ],
      "stateMutability": "view",
      "type": "function"
    },
    {
      "inputs": [
        {
          "internalType": "address",
          "name": "",
          "type": "address"
        }
      ],
      "name": "oracles",
      "outputs": [
        {
          "internalType": "contract PriceOracle",
          "name": "",
          "type": "address"
        }
      ],
      "stateMutability": "view",
      "type": "function"
    },
    {
      "inputs": [
        {
          "internalType": "address[]",
          "name": "underlyings",
          "type": "address[]"
        },
        {
          "internalType": "contract PriceOracle[]",
          "name": "_oracles",
          "type": "address[]"
        }
      ],
      "name": "add",
      "outputs": [],
      "stateMutability": "nonpayable",
      "type": "function"
    },
    {
      "inputs": [
        {
          "internalType": "address",
          "name": "newAdmin",
          "type": "address"
        }
      ],
      "name": "changeAdmin",
      "outputs": [],
      "stateMutability": "nonpayable",
      "type": "function"
    },
    {
      "inputs": [
        {
          "internalType": "contract CToken",
          "name": "cToken",
          "type": "address"
        }
      ],
      "name": "getUnderlyingPrice",
      "outputs": [
        {
          "internalType": "uint256",
          "name": "",
          "type": "uint256"
        }
      ],
      "stateMutability": "view",
      "type": "function"
    },
    {
      "inputs": [
        {
          "internalType": "address",
          "name": "underlying",
          "type": "address"
        }
      ],
      "name": "price",
      "outputs": [
        {
          "internalType": "uint256",
          "name": "",
          "type": "uint256"
        }
      ],
      "stateMutability": "view",
      "type": "function"
    }
  ],
  "bytecode": "0x608060405234801561001057600080fd5b50604051610b53380380610b538339818101604052608081101561003357600080fd5b810190808051604051939291908464010000000082111561005357600080fd5b90830190602082018581111561006857600080fd5b825186602082028301116401000000008211171561008557600080fd5b82525081516020918201928201910280838360005b838110156100b257818101518382015260200161009a565b50505050905001604052602001805160405193929190846401000000008211156100db57600080fd5b9083019060208201858111156100f057600080fd5b825186602082028301116401000000008211171561010d57600080fd5b82525081516020918201928201910280838360005b8381101561013a578181015183820152602001610122565b5050505091909101604090815260208301519201518551875193955090935091909114905061019a5760405162461bcd60e51b8152600401808060200182810382526025815260200180610b2e6025913960400191505060405180910390fd5b60005b845181101561020d578381815181106101b257fe5b60200260200101516000808784815181106101c957fe5b6020908102919091018101516001600160a01b0390811683529082019290925260400160002080546001600160a01b0319169290911691909117905560010161019d565b5060018054911515600160a01b0260ff60a01b196001600160a01b039094166001600160a01b0319909316929092179290921617905550506108da806102546000396000f3fe608060405234801561001057600080fd5b506004361061007d5760003560e01c8063addd50991161005b578063addd509914610188578063aea91078146101ca578063f851a44014610202578063fc57d4df1461020a5761007d565b8063656b0fd1146100825780638f2839701461009e5780639c9192c6146100c6575b600080fd5b61008a610230565b604080519115158252519081900360200190f35b6100c4600480360360208110156100b457600080fd5b50356001600160a01b0316610240565b005b6100c4600480360360408110156100dc57600080fd5b8101906020810181356401000000008111156100f757600080fd5b82018360208201111561010957600080fd5b8035906020019184602083028401116401000000008311171561012b57600080fd5b91939092909160208101903564010000000081111561014957600080fd5b82018360208201111561015b57600080fd5b8035906020019184602083028401116401000000008311171561017d57600080fd5b5090925090506102fd565b6101ae6004803603602081101561019e57600080fd5b50356001600160a01b03166104ab565b604080516001600160a01b039092168252519081900360200190f35b6101f0600480360360208110156101e057600080fd5b50356001600160a01b03166104c6565b60408051918252519081900360200190f35b6101ae6105de565b6101f06004803603602081101561022057600080fd5b50356001600160a01b03166105ed565b600154600160a01b900460ff1681565b6001546001600160a01b0316331461029a576040805162461bcd60e51b815260206004820152601860248201527729b2b73232b91034b9903737ba103a34329030b236b4b71760411b604482015290519081900360640190fd5b600180546001600160a01b038381166001600160a01b0319831681179093556040805191909216808252602082019390935281517ff9ffabca9c8276e99321725bcb43fb076a6c66a54b7f21c4e8146d8519b417dc929181900390910190a15050565b6001546001600160a01b03163314610357576040805162461bcd60e51b815260206004820152601860248201527729b2b73232b91034b9903737ba103a34329030b236b4b71760411b604482015290519081900360640190fd5b821580159061036557508281145b6103a05760405162461bcd60e51b81526004018080602001828103825260388152602001806108346038913960400191505060405180910390fd5b60005b838110156104a457600154600160a01b900460ff1661043357600080808787858181106103cc57fe5b6001600160a01b036020918202939093013583168452830193909352604090910160002054169190911490506104335760405162461bcd60e51b815260040180806020018281038252604c8152602001806107e8604c913960600191505060405180910390fd5b82828281811061043f57fe5b905060200201356001600160a01b031660008087878581811061045e57fe5b6001600160a01b03602091820293909301358316845283019390935260409091016000208054939091166001600160a01b031990931692909217909155506001016103a3565b5050505050565b6000602081905290815260409020546001600160a01b031681565b600073c02aaa39b223fe8d0a0e5c4f27ead9083c756cc26001600160a01b03831614156104fc5750670de0b6b3a76400006105d9565b6001600160a01b03828116600090815260208190526040902054166105525760405162461bcd60e51b815260040180806020018281038252603981526020018061086c6039913960400191505060405180910390fd5b6001600160a01b03808316600081815260208181526040918290205482516315d5220f60e31b815260048101949094529151919093169263aea910789260248082019391829003018186803b1580156105aa57600080fd5b505afa1580156105be573d6000803e3d6000fd5b505050506040513d60208110156105d457600080fd5b505190505b919050565b6001546001600160a01b031681565b6000816001600160a01b031663ac784ddc6040518163ffffffff1660e01b815260040160206040518083038186803b15801561062857600080fd5b505afa15801561063c573d6000803e3d6000fd5b505050506040513d602081101561065257600080fd5b5051156106685750670de0b6b3a76400006105d9565b6000826001600160a01b0316636f307dc36040518163ffffffff1660e01b815260040160206040518083038186803b1580156106a357600080fd5b505afa1580156106b7573d6000803e3d6000fd5b505050506040513d60208110156106cd57600080fd5b5051905073c02aaa39b223fe8d0a0e5c4f27ead9083c756cc26001600160a01b038216141561070757670de0b6b3a76400009150506105d9565b6001600160a01b038181166000908152602081905260409020541661075d5760405162461bcd60e51b815260040180806020018281038252603981526020018061086c6039913960400191505060405180910390fd5b6001600160a01b038082166000908152602081815260409182902054825163fc57d4df60e01b81528785166004820152925193169263fc57d4df926024808201939291829003018186803b1580156107b457600080fd5b505afa1580156107c8573d6000803e3d6000fd5b505050506040513d60208110156107de57600080fd5b5051939250505056fe41646d696e2063616e6e6f74206f7665727772697465206578697374696e672061737369676e6d656e7473206f66206f7261636c657320746f20756e6465726c79696e6720746f6b656e732e4c656e67746873206f6620626f746820617272617973206d75737420626520657175616c20616e642067726561746572207468616e20302e5072696365206f7261636c65206e6f7420666f756e6420666f72207468697320756e6465726c79696e6720746f6b656e20616464726573732ea264697066735822122038501d001e23eceeee36f41ea9a39e6891623fe2db06a055ebc3a5a5eef69b4064736f6c634300060c00334c656e67746873206f6620626f746820617272617973206d75737420626520657175616c2e",
  "immutableReferences": {},
  "source": "// SPDX-License-Identifier: UNLICENSED\r\npragma solidity 0.6.12;\r\n\r\nimport \"../external/compound/PriceOracle.sol\";\r\nimport \"../external/compound/CToken.sol\";\r\nimport \"../external/compound/CErc20.sol\";\r\n\r\nimport \"./BasePriceOracle.sol\";\r\n\r\n/**\r\n * @title MasterPriceOracle\r\n * @notice Use a combination of price oracles.\r\n * @dev Implements `PriceOracle`.\r\n * @author David Lucid <david@rari.capital> (https://github.com/davidlucid)\r\n */\r\ncontract MasterPriceOracle is PriceOracle, BasePriceOracle {\r\n    /**\r\n     * @dev Maps underlying token addresses to `PriceOracle` contracts (can be `BasePriceOracle` contracts too).\r\n     */\r\n    mapping(address => PriceOracle) public oracles;\r\n\r\n    /**\r\n     * @dev The administrator of this `MasterPriceOracle`.\r\n     */\r\n    address public admin;\r\n\r\n    /**\r\n     * @dev Controls if `admin` can overwrite existing assignments of oracles to underlying tokens.\r\n     */\r\n    bool public canAdminOverwrite;\r\n\r\n    /**\r\n     * @dev Constructor to initialize state variables.\r\n     * @param underlyings The underlying ERC20 token addresses to link to `_oracles`.\r\n     * @param _oracles The `PriceOracle` contracts to be assigned to `underlyings`.\r\n     * @param _admin The admin who can assign oracles to underlying tokens.\r\n     * @param _canAdminOverwrite Controls if `admin` can overwrite existing assignments of oracles to underlying tokens.\r\n     */\r\n    constructor (address[] memory underlyings, PriceOracle[] memory _oracles, address _admin, bool _canAdminOverwrite) public {\r\n        // Input validation\r\n        require(underlyings.length == _oracles.length, \"Lengths of both arrays must be equal.\");\r\n\r\n        // Initialize state variables\r\n        for (uint256 i = 0; i < underlyings.length; i++) oracles[underlyings[i]] = _oracles[i];\r\n        admin = _admin;\r\n        canAdminOverwrite = _canAdminOverwrite;\r\n    }\r\n\r\n    /**\r\n     * @dev Sets `_oracles` for `underlyings`.\r\n     */\r\n    function add(address[] calldata underlyings, PriceOracle[] calldata _oracles) external onlyAdmin {\r\n        // Input validation\r\n        require(underlyings.length > 0 && underlyings.length == _oracles.length, \"Lengths of both arrays must be equal and greater than 0.\");\r\n\r\n        // Assign oracles to underlying tokens\r\n        for (uint256 i = 0; i < underlyings.length; i++) {\r\n            if (!canAdminOverwrite) require(address(oracles[underlyings[i]]) == address(0), \"Admin cannot overwrite existing assignments of oracles to underlying tokens.\");\r\n            oracles[underlyings[i]] = _oracles[i];\r\n        }\r\n    }\r\n\r\n    /**\r\n     * @dev Changes the admin and emits an event.\r\n     */\r\n    function changeAdmin(address newAdmin) external onlyAdmin {\r\n        address oldAdmin = admin;\r\n        admin = newAdmin;\r\n        emit NewAdmin(oldAdmin, newAdmin);\r\n    }\r\n\r\n    /**\r\n     * @dev Event emitted when `admin` is changed.\r\n     */\r\n    event NewAdmin(address oldAdmin, address newAdmin);\r\n\r\n    /**\r\n     * @dev Modifier that checks if `msg.sender == admin`.\r\n     */\r\n    modifier onlyAdmin {\r\n        require(msg.sender == admin, \"Sender is not the admin.\");\r\n        _;\r\n    }\r\n\r\n    /**\r\n     * @notice Returns the price in ETH of the token underlying `cToken`.\r\n     * @dev Implements the `PriceOracle` interface for Fuse pools (and Compound v2).\r\n     * @return Price in ETH of the token underlying `cToken`, scaled by `10 ** (36 - underlyingDecimals)`.\r\n     */\r\n    function getUnderlyingPrice(CToken cToken) external override view returns (uint) {\r\n        // Return 1e18 for ETH\r\n        if (cToken.isCEther()) return 1e18;\r\n\r\n        // Get underlying ERC20 token address\r\n        address underlying = address(CErc20(address(cToken)).underlying());\r\n\r\n        // Return 1e18 for WETH\r\n        if (underlying == 0xC02aaA39b223FE8D0A0e5C4F27eAD9083C756Cc2) return 1e18;\r\n\r\n        // Get underlying price from assigned oracle\r\n        require(address(oracles[underlying]) != address(0), \"Price oracle not found for this underlying token address.\");\r\n        return oracles[underlying].getUnderlyingPrice(cToken);\r\n    }\r\n\r\n    /**\r\n     * @dev Attempts to return the price in ETH of `underlying` (implements `BasePriceOracle`).\r\n     */\r\n    function price(address underlying) external override view returns (uint) {\r\n        // Return 1e18 for WETH\r\n        if (underlying == 0xC02aaA39b223FE8D0A0e5C4F27eAD9083C756Cc2) return 1e18;\r\n\r\n        // Get underlying price from assigned oracle\r\n        require(address(oracles[underlying]) != address(0), \"Price oracle not found for this underlying token address.\");\r\n        return BasePriceOracle(address(oracles[underlying])).price(underlying);\r\n    }\r\n}\r\n",
  "sourcePath": "C:\\Users\\david\\Dropbox\\Rari\\v1\\fuse-contracts\\contracts\\oracles\\MasterPriceOracle.sol",
  "compiler": {
    "name": "solc",
    "version": "0.6.12+commit.27d51765.Emscripten.clang"
  },
  "schemaVersion": "3.2.3",
  "updatedAt": "2021-09-27T20:36:36.370Z",
  "devdoc": {
    "author": "David Lucid <david@rari.capital> (https://github.com/davidlucid)",
    "details": "Implements `PriceOracle`.",
    "events": {
      "NewAdmin(address,address)": {
        "details": "Event emitted when `admin` is changed."
      }
    },
    "kind": "dev",
    "methods": {
      "add(address[],address[])": {
        "details": "Sets `_oracles` for `underlyings`."
      },
      "changeAdmin(address)": {
        "details": "Changes the admin and emits an event."
      },
      "constructor": {
        "details": "Constructor to initialize state variables.",
        "params": {
          "_admin": "The admin who can assign oracles to underlying tokens.",
          "_canAdminOverwrite": "Controls if `admin` can overwrite existing assignments of oracles to underlying tokens.",
          "_oracles": "The `PriceOracle` contracts to be assigned to `underlyings`.",
          "underlyings": "The underlying ERC20 token addresses to link to `_oracles`."
        }
      },
      "getUnderlyingPrice(address)": {
        "details": "Implements the `PriceOracle` interface for Fuse pools (and Compound v2).",
        "returns": {
          "_0": "Price in ETH of the token underlying `cToken`, scaled by `10 ** (36 - underlyingDecimals)`."
        }
      },
      "price(address)": {
        "details": "Attempts to return the price in ETH of `underlying` (implements `BasePriceOracle`)."
      }
    },
    "stateVariables": {
      "admin": {
        "details": "The administrator of this `MasterPriceOracle`."
      },
      "canAdminOverwrite": {
        "details": "Controls if `admin` can overwrite existing assignments of oracles to underlying tokens."
      },
      "oracles": {
        "details": "Maps underlying token addresses to `PriceOracle` contracts (can be `BasePriceOracle` contracts too)."
      }
    },
    "title": "MasterPriceOracle",
    "version": 1
  },
  "userdoc": {
    "kind": "user",
    "methods": {
      "getUnderlyingPrice(address)": {
        "notice": "Returns the price in ETH of the token underlying `cToken`."
      }
    },
    "notice": "Use a combination of price oracles.",
    "version": 1
  }
}