{
  "contractName": "MasterPriceOracle",
  "abi": [
    {
      "inputs": [
        {
          "internalType": "address[]",
          "name": "underlyings",
          "type": "address[]"
        },
        {
          "internalType": "contract PriceOracle[]",
          "name": "_oracles",
          "type": "address[]"
        },
        {
          "internalType": "address",
          "name": "_admin",
          "type": "address"
        },
        {
          "internalType": "bool",
          "name": "_canAdminOverwrite",
          "type": "bool"
        }
      ],
      "stateMutability": "nonpayable",
      "type": "constructor"
    },
    {
      "anonymous": false,
      "inputs": [
        {
          "indexed": false,
          "internalType": "address",
          "name": "oldAdmin",
          "type": "address"
        },
        {
          "indexed": false,
          "internalType": "address",
          "name": "newAdmin",
          "type": "address"
        }
      ],
      "name": "NewAdmin",
      "type": "event"
    },
    {
      "inputs": [],
      "name": "admin",
      "outputs": [
        {
          "internalType": "address",
          "name": "",
          "type": "address"
        }
      ],
      "stateMutability": "view",
      "type": "function"
    },
    {
      "inputs": [],
      "name": "canAdminOverwrite",
      "outputs": [
        {
          "internalType": "bool",
          "name": "",
          "type": "bool"
        }
      ],
      "stateMutability": "view",
      "type": "function"
    },
    {
      "inputs": [
        {
          "internalType": "address",
          "name": "",
          "type": "address"
        }
      ],
      "name": "oracles",
      "outputs": [
        {
          "internalType": "contract PriceOracle",
          "name": "",
          "type": "address"
        }
      ],
      "stateMutability": "view",
      "type": "function"
    },
    {
      "inputs": [
        {
          "internalType": "address[]",
          "name": "_underlyings",
          "type": "address[]"
        },
        {
          "internalType": "contract PriceOracle[]",
          "name": "_oracles",
          "type": "address[]"
        }
      ],
      "name": "add",
      "outputs": [],
      "stateMutability": "nonpayable",
      "type": "function"
    },
    {
      "inputs": [
        {
          "internalType": "address",
          "name": "newAdmin",
          "type": "address"
        }
      ],
      "name": "changeAdmin",
      "outputs": [],
      "stateMutability": "nonpayable",
      "type": "function"
    },
    {
      "inputs": [
        {
          "internalType": "contract CToken",
          "name": "cToken",
          "type": "address"
        }
      ],
      "name": "getUnderlyingPrice",
      "outputs": [
        {
          "internalType": "uint256",
          "name": "",
          "type": "uint256"
        }
      ],
      "stateMutability": "view",
      "type": "function"
    },
    {
      "inputs": [
        {
          "internalType": "address",
          "name": "underlying",
          "type": "address"
        }
      ],
      "name": "price",
      "outputs": [
        {
          "internalType": "uint256",
          "name": "",
          "type": "uint256"
        }
      ],
      "stateMutability": "view",
      "type": "function"
    },
    {
      "inputs": [],
      "name": "getAllOracles",
      "outputs": [
        {
          "internalType": "address[]",
          "name": "",
          "type": "address[]"
        },
        {
          "internalType": "contract PriceOracle[]",
          "name": "",
          "type": "address[]"
        }
      ],
      "stateMutability": "view",
      "type": "function"
    }
  ],
  "bytecode": "0x608060405234801561001057600080fd5b50604051610d8d380380610d8d8339818101604052608081101561003357600080fd5b810190808051604051939291908464010000000082111561005357600080fd5b90830190602082018581111561006857600080fd5b825186602082028301116401000000008211171561008557600080fd5b82525081516020918201928201910280838360005b838110156100b257818101518382015260200161009a565b50505050905001604052602001805160405193929190846401000000008211156100db57600080fd5b9083019060208201858111156100f057600080fd5b825186602082028301116401000000008211171561010d57600080fd5b82525081516020918201928201910280838360005b8381101561013a578181015183820152602001610122565b5050505091909101604090815260208301519201518551875193955090935091909114905061019a5760405162461bcd60e51b8152600401808060200182810382526025815260200180610d686025913960400191505060405180910390fd5b60005b845181101561020d578381815181106101b257fe5b60200260200101516000808784815181106101c957fe5b6020908102919091018101516001600160a01b0390811683529082019290925260400160002080546001600160a01b0319169290911691909117905560010161019d565b5060028054911515600160a01b0260ff60a01b196001600160a01b039094166001600160a01b031990931692909217929092161790555050610b14806102546000396000f3fe608060405234801561001057600080fd5b50600436106100885760003560e01c8063addd50991161005b578063addd509914610234578063aea9107814610276578063f851a440146102ae578063fc57d4df146102b657610088565b8063656b0fd11461008d57806365a6bb29146100a95780638f2839701461014a5780639c9192c614610172575b600080fd5b6100956102dc565b604080519115158252519081900360200190f35b6100b16102ec565b604051808060200180602001838103835285818151815260200191508051906020019060200280838360005b838110156100f55781810151838201526020016100dd565b50505050905001838103825284818151815260200191508051906020019060200280838360005b8381101561013457818101518382015260200161011c565b5050505090500194505050505060405180910390f35b6101706004803603602081101561016057600080fd5b50356001600160a01b031661041b565b005b6101706004803603604081101561018857600080fd5b8101906020810181356401000000008111156101a357600080fd5b8201836020820111156101b557600080fd5b803590602001918460208302840111640100000000831117156101d757600080fd5b9193909290916020810190356401000000008111156101f557600080fd5b82018360208201111561020757600080fd5b8035906020019184602083028401116401000000008311171561022957600080fd5b5090925090506104d8565b61025a6004803603602081101561024a57600080fd5b50356001600160a01b03166106e5565b604080516001600160a01b039092168252519081900360200190f35b61029c6004803603602081101561028c57600080fd5b50356001600160a01b0316610700565b60408051918252519081900360200190f35b61025a610818565b61029c600480360360208110156102cc57600080fd5b50356001600160a01b0316610827565b600254600160a01b900460ff1681565b606080606060018054905067ffffffffffffffff8111801561030d57600080fd5b50604051908082528060200260200182016040528015610337578160200160208202803683370190505b50905060005b6001548110156103b2576000806001838154811061035757fe5b60009182526020808320909101546001600160a01b039081168452908301939093526040909101902054835191169083908390811061039257fe5b6001600160a01b039092166020928302919091019091015260010161033d565b506001818180548060200260200160405190810160405280929190818152602001828054801561040b57602002820191906000526020600020905b81546001600160a01b031681526001909101906020018083116103ed575b5050505050915092509250509091565b6002546001600160a01b03163314610475576040805162461bcd60e51b815260206004820152601860248201527729b2b73232b91034b9903737ba103a34329030b236b4b71760411b604482015290519081900360640190fd5b600280546001600160a01b038381166001600160a01b0319831681179093556040805191909216808252602082019390935281517ff9ffabca9c8276e99321725bcb43fb076a6c66a54b7f21c4e8146d8519b417dc929181900390910190a15050565b6002546001600160a01b03163314610532576040805162461bcd60e51b815260206004820152601860248201527729b2b73232b91034b9903737ba103a34329030b236b4b71760411b604482015290519081900360640190fd5b821580159061054057508281145b61057b5760405162461bcd60e51b8152600401808060200182810382526038815260200180610a6e6038913960400191505060405180910390fd5b60005b838110156106de57600254600160a01b900460ff1661060e57600080808787858181106105a757fe5b6001600160a01b0360209182029390930135831684528301939093526040909101600020541691909114905061060e5760405162461bcd60e51b815260040180806020018281038252604c815260200180610a22604c913960600191505060405180910390fd5b82828281811061061a57fe5b905060200201356001600160a01b031660008087878581811061063957fe5b905060200201356001600160a01b03166001600160a01b03166001600160a01b0316815260200190815260200160002060006101000a8154816001600160a01b0302191690836001600160a01b03160217905550600185858381811061069b57fe5b835460018181018655600095865260209586902090910180546001600160a01b0319166001600160a01b039690930294909401359490941617909155500161057e565b5050505050565b6000602081905290815260409020546001600160a01b031681565b600073c02aaa39b223fe8d0a0e5c4f27ead9083c756cc26001600160a01b03831614156107365750670de0b6b3a7640000610813565b6001600160a01b038281166000908152602081905260409020541661078c5760405162461bcd60e51b8152600401808060200182810382526039815260200180610aa66039913960400191505060405180910390fd5b6001600160a01b03808316600081815260208181526040918290205482516315d5220f60e31b815260048101949094529151919093169263aea910789260248082019391829003018186803b1580156107e457600080fd5b505afa1580156107f8573d6000803e3d6000fd5b505050506040513d602081101561080e57600080fd5b505190505b919050565b6002546001600160a01b031681565b6000816001600160a01b031663ac784ddc6040518163ffffffff1660e01b815260040160206040518083038186803b15801561086257600080fd5b505afa158015610876573d6000803e3d6000fd5b505050506040513d602081101561088c57600080fd5b5051156108a25750670de0b6b3a7640000610813565b6000826001600160a01b0316636f307dc36040518163ffffffff1660e01b815260040160206040518083038186803b1580156108dd57600080fd5b505afa1580156108f1573d6000803e3d6000fd5b505050506040513d602081101561090757600080fd5b5051905073c02aaa39b223fe8d0a0e5c4f27ead9083c756cc26001600160a01b038216141561094157670de0b6b3a7640000915050610813565b6001600160a01b03818116600090815260208190526040902054166109975760405162461bcd60e51b8152600401808060200182810382526039815260200180610aa66039913960400191505060405180910390fd5b6001600160a01b038082166000908152602081815260409182902054825163fc57d4df60e01b81528785166004820152925193169263fc57d4df926024808201939291829003018186803b1580156109ee57600080fd5b505afa158015610a02573d6000803e3d6000fd5b505050506040513d6020811015610a1857600080fd5b5051939250505056fe41646d696e2063616e6e6f74206f7665727772697465206578697374696e672061737369676e6d656e7473206f66206f7261636c657320746f20756e6465726c79696e6720746f6b656e732e4c656e67746873206f6620626f746820617272617973206d75737420626520657175616c20616e642067726561746572207468616e20302e5072696365206f7261636c65206e6f7420666f756e6420666f72207468697320756e6465726c79696e6720746f6b656e20616464726573732ea2646970667358221220ec7d7df0d2cd25c097a7611b01ae0639919f084ead0814551895caf331deadef64736f6c634300060c00334c656e67746873206f6620626f746820617272617973206d75737420626520657175616c2e",
  "immutableReferences": {},
  "source": "// SPDX-License-Identifier: UNLICENSED\r\npragma solidity 0.6.12;\r\n\r\nimport \"../external/compound/PriceOracle.sol\";\r\nimport \"../external/compound/CToken.sol\";\r\nimport \"../external/compound/CErc20.sol\";\r\n\r\nimport \"./BasePriceOracle.sol\";\r\n\r\n/**\r\n * @title MasterPriceOracle\r\n * @notice Use a combination of price oracles.\r\n * @dev Implements `PriceOracle`.\r\n * @author David Lucid <david@rari.capital> (https://github.com/davidlucid)\r\n */\r\ncontract MasterPriceOracle is PriceOracle, BasePriceOracle {\r\n    /**\r\n     * @dev Maps underlying token addresses to `PriceOracle` contracts (can be `BasePriceOracle` contracts too).\r\n     */\r\n    mapping(address => PriceOracle) public oracles;\r\n\r\n    /**\r\n     * @dev Array of underlying token addresses that have ever been added to this contract.\r\n     */\r\n    address[] internal underlyings;\r\n\r\n    /**\r\n     * @dev The administrator of this `MasterPriceOracle`.\r\n     */\r\n    address public admin;\r\n\r\n    /**\r\n     * @dev Controls if `admin` can overwrite existing assignments of oracles to underlying tokens.\r\n     */\r\n    bool public canAdminOverwrite;\r\n\r\n    /**\r\n     * @dev Constructor to initialize state variables.\r\n     * @param underlyings The underlying ERC20 token addresses to link to `_oracles`.\r\n     * @param _oracles The `PriceOracle` contracts to be assigned to `underlyings`.\r\n     * @param _admin The admin who can assign oracles to underlying tokens.\r\n     * @param _canAdminOverwrite Controls if `admin` can overwrite existing assignments of oracles to underlying tokens.\r\n     */\r\n    constructor (address[] memory underlyings, PriceOracle[] memory _oracles, address _admin, bool _canAdminOverwrite) public {\r\n        // Input validation\r\n        require(underlyings.length == _oracles.length, \"Lengths of both arrays must be equal.\");\r\n\r\n        // Initialize state variables\r\n        for (uint256 i = 0; i < underlyings.length; i++) oracles[underlyings[i]] = _oracles[i];\r\n        admin = _admin;\r\n        canAdminOverwrite = _canAdminOverwrite;\r\n    }\r\n\r\n    /**\r\n     * @dev Sets `_oracles` for `underlyings`.\r\n     */\r\n    function add(address[] calldata _underlyings, PriceOracle[] calldata _oracles) external onlyAdmin {\r\n        // Input validation\r\n        require(_underlyings.length > 0 && _underlyings.length == _oracles.length, \"Lengths of both arrays must be equal and greater than 0.\");\r\n\r\n        // Assign oracles to underlying tokens\r\n        for (uint256 i = 0; i < _underlyings.length; i++) {\r\n            if (!canAdminOverwrite) require(address(oracles[_underlyings[i]]) == address(0), \"Admin cannot overwrite existing assignments of oracles to underlying tokens.\");\r\n            oracles[_underlyings[i]] = _oracles[i];\r\n            underlyings.push(_underlyings[i]);\r\n        }\r\n    }\r\n\r\n    /**\r\n     * @dev Changes the admin and emits an event.\r\n     */\r\n    function changeAdmin(address newAdmin) external onlyAdmin {\r\n        address oldAdmin = admin;\r\n        admin = newAdmin;\r\n        emit NewAdmin(oldAdmin, newAdmin);\r\n    }\r\n\r\n    /**\r\n     * @dev Event emitted when `admin` is changed.\r\n     */\r\n    event NewAdmin(address oldAdmin, address newAdmin);\r\n\r\n    /**\r\n     * @dev Modifier that checks if `msg.sender == admin`.\r\n     */\r\n    modifier onlyAdmin {\r\n        require(msg.sender == admin, \"Sender is not the admin.\");\r\n        _;\r\n    }\r\n\r\n    /**\r\n     * @notice Returns the price in ETH of the token underlying `cToken`.\r\n     * @dev Implements the `PriceOracle` interface for Fuse pools (and Compound v2).\r\n     * @return Price in ETH of the token underlying `cToken`, scaled by `10 ** (36 - underlyingDecimals)`.\r\n     */\r\n    function getUnderlyingPrice(CToken cToken) external override view returns (uint) {\r\n        // Return 1e18 for ETH\r\n        if (cToken.isCEther()) return 1e18;\r\n\r\n        // Get underlying ERC20 token address\r\n        address underlying = address(CErc20(address(cToken)).underlying());\r\n\r\n        // Return 1e18 for WETH\r\n        if (underlying == 0xC02aaA39b223FE8D0A0e5C4F27eAD9083C756Cc2) return 1e18;\r\n\r\n        // Get underlying price from assigned oracle\r\n        require(address(oracles[underlying]) != address(0), \"Price oracle not found for this underlying token address.\");\r\n        return oracles[underlying].getUnderlyingPrice(cToken);\r\n    }\r\n\r\n    /**\r\n     * @dev Attempts to return the price in ETH of `underlying` (implements `BasePriceOracle`).\r\n     */\r\n    function price(address underlying) external override view returns (uint) {\r\n        // Return 1e18 for WETH\r\n        if (underlying == 0xC02aaA39b223FE8D0A0e5C4F27eAD9083C756Cc2) return 1e18;\r\n\r\n        // Get underlying price from assigned oracle\r\n        require(address(oracles[underlying]) != address(0), \"Price oracle not found for this underlying token address.\");\r\n        return BasePriceOracle(address(oracles[underlying])).price(underlying);\r\n    }\r\n\r\n    /**\r\n     * @dev Attempts to return the price in ETH of `underlying` (implements `BasePriceOracle`).\r\n     */\r\n    function getAllOracles() external view returns (address[] memory, PriceOracle[] memory) {\r\n        PriceOracle[] memory allOracles = new PriceOracle[](underlyings.length);\r\n        for (uint256 i = 0; i < underlyings.length; i++) allOracles[i] = oracles[underlyings[i]];\r\n        return (underlyings, allOracles);\r\n    }\r\n}\r\n",
  "sourcePath": "C:\\Users\\david\\Dropbox\\Rari\\v1\\fuse-contracts\\contracts\\oracles\\MasterPriceOracle.sol",
  "compiler": {
    "name": "solc",
    "version": "0.6.12+commit.27d51765.Emscripten.clang"
  },
  "schemaVersion": "3.2.3",
  "updatedAt": "2021-09-28T01:39:01.280Z",
  "devdoc": {
    "author": "David Lucid <david@rari.capital> (https://github.com/davidlucid)",
    "details": "Implements `PriceOracle`.",
    "events": {
      "NewAdmin(address,address)": {
        "details": "Event emitted when `admin` is changed."
      }
    },
    "kind": "dev",
    "methods": {
      "add(address[],address[])": {
        "details": "Sets `_oracles` for `underlyings`."
      },
      "changeAdmin(address)": {
        "details": "Changes the admin and emits an event."
      },
      "constructor": {
        "details": "Constructor to initialize state variables.",
        "params": {
          "_admin": "The admin who can assign oracles to underlying tokens.",
          "_canAdminOverwrite": "Controls if `admin` can overwrite existing assignments of oracles to underlying tokens.",
          "_oracles": "The `PriceOracle` contracts to be assigned to `underlyings`.",
          "underlyings": "The underlying ERC20 token addresses to link to `_oracles`."
        }
      },
      "getAllOracles()": {
        "details": "Attempts to return the price in ETH of `underlying` (implements `BasePriceOracle`)."
      },
      "getUnderlyingPrice(address)": {
        "details": "Implements the `PriceOracle` interface for Fuse pools (and Compound v2).",
        "returns": {
          "_0": "Price in ETH of the token underlying `cToken`, scaled by `10 ** (36 - underlyingDecimals)`."
        }
      },
      "price(address)": {
        "details": "Attempts to return the price in ETH of `underlying` (implements `BasePriceOracle`)."
      }
    },
    "stateVariables": {
      "admin": {
        "details": "The administrator of this `MasterPriceOracle`."
      },
      "canAdminOverwrite": {
        "details": "Controls if `admin` can overwrite existing assignments of oracles to underlying tokens."
      },
      "oracles": {
        "details": "Maps underlying token addresses to `PriceOracle` contracts (can be `BasePriceOracle` contracts too)."
      },
      "underlyings": {
        "details": "Array of underlying token addresses that have ever been added to this contract."
      }
    },
    "title": "MasterPriceOracle",
    "version": 1
  },
  "userdoc": {
    "kind": "user",
    "methods": {
      "getUnderlyingPrice(address)": {
        "notice": "Returns the price in ETH of the token underlying `cToken`."
      }
    },
    "notice": "Use a combination of price oracles.",
    "version": 1
  }
}