{
  "contractName": "PreferredPriceOracle",
  "abi": [
    {
      "inputs": [
        {
          "internalType": "contract ChainlinkPriceOracle",
          "name": "_chainlinkOracle",
          "type": "address"
        },
        {
          "internalType": "contract PriceOracle",
          "name": "_secondaryOracle",
          "type": "address"
        }
      ],
      "stateMutability": "nonpayable",
      "type": "constructor"
    },
    {
      "inputs": [],
      "name": "chainlinkOracle",
      "outputs": [
        {
          "internalType": "contract ChainlinkPriceOracle",
          "name": "",
          "type": "address"
        }
      ],
      "stateMutability": "view",
      "type": "function"
    },
    {
      "inputs": [],
      "name": "secondaryOracle",
      "outputs": [
        {
          "internalType": "contract PriceOracle",
          "name": "",
          "type": "address"
        }
      ],
      "stateMutability": "view",
      "type": "function"
    },
    {
      "inputs": [
        {
          "internalType": "contract CToken",
          "name": "cToken",
          "type": "address"
        }
      ],
      "name": "getUnderlyingPrice",
      "outputs": [
        {
          "internalType": "uint256",
          "name": "",
          "type": "uint256"
        }
      ],
      "stateMutability": "view",
      "type": "function"
    }
  ],
  "bytecode": "0x608060405234801561001057600080fd5b506040516104c73803806104c78339818101604052604081101561003357600080fd5b5080516020909101516001600160a01b038216610097576040805162461bcd60e51b815260206004820152601d60248201527f436861696e6c696e6b50726963654f7261636c65206e6f74207365742e000000604482015290519081900360640190fd5b6001600160a01b0381166100f2576040805162461bcd60e51b815260206004820152601f60248201527f5365636f6e64617279207072696365206f7261636c65206e6f74207365742e00604482015290519081900360640190fd5b600080546001600160a01b039384166001600160a01b0319918216179091556001805492909316911617905561039a8061012d6000396000f3fe608060405234801561001057600080fd5b50600436106100415760003560e01c8063329d460914610046578063ef06e72c1461006a578063fc57d4df14610072575b600080fd5b61004e6100aa565b604080516001600160a01b039092168252519081900360200190f35b61004e6100b9565b6100986004803603602081101561008857600080fd5b50356001600160a01b03166100c8565b60408051918252519081900360200190f35b6001546001600160a01b031681565b6000546001600160a01b031681565b6000816001600160a01b031663ac784ddc6040518163ffffffff1660e01b815260040160206040518083038186803b15801561010357600080fd5b505afa158015610117573d6000803e3d6000fd5b505050506040513d602081101561012d57600080fd5b5051156101435750670de0b6b3a764000061035f565b6000826001600160a01b0316636f307dc36040518163ffffffff1660e01b815260040160206040518083038186803b15801561017e57600080fd5b505afa158015610192573d6000803e3d6000fd5b505050506040513d60208110156101a857600080fd5b5051905073c02aaa39b223fe8d0a0e5c4f27ead9083c756cc26001600160a01b03821614156101e257670de0b6b3a764000091505061035f565b600054604080516305bcc1d160e11b81526001600160a01b03848116600483015291519190921691630b7983a2916024808301926020929190829003018186803b15801561022f57600080fd5b505afa158015610243573d6000803e3d6000fd5b505050506040513d602081101561025957600080fd5b5051156102e2576000546040805163fc57d4df60e01b81526001600160a01b0386811660048301529151919092169163fc57d4df916024808301926020929190829003018186803b1580156102ad57600080fd5b505afa1580156102c1573d6000803e3d6000fd5b505050506040513d60208110156102d757600080fd5b5051915061035f9050565b6001546040805163fc57d4df60e01b81526001600160a01b0386811660048301529151919092169163fc57d4df916024808301926020929190829003018186803b15801561032f57600080fd5b505afa158015610343573d6000803e3d6000fd5b505050506040513d602081101561035957600080fd5b50519150505b91905056fea264697066735822122006be14937307e846a9c43a06adff808158fc3905d3d3c7858fe75b1f558dbaf864736f6c634300060c0033",
  "immutableReferences": {},
  "source": "pragma solidity 0.6.12;\r\n\r\nimport \"../external/compound/PriceOracle.sol\";\r\nimport \"../external/compound/CToken.sol\";\r\nimport \"../external/compound/CErc20.sol\";\r\n\r\nimport \"./ChainlinkPriceOracle.sol\";\r\n\r\n/**\r\n * @title PreferredPriceOracle\r\n * @notice Returns prices from Chainlink or prices from a secondary oracle if an asset's price is not available via Chainlink.\r\n * @dev Implements `PriceOracle`.\r\n * @author David Lucid <david@rari.capital> (https://github.com/davidlucid)\r\n */\r\ncontract PreferredPriceOracle is PriceOracle {\r\n    /**\r\n     * @dev The primary `ChainlinkPriceOracle`.\r\n     */\r\n    ChainlinkPriceOracle public chainlinkOracle;\r\n\r\n    /**\r\n     * @dev The secondary `PriceOracle`.\r\n     */\r\n    PriceOracle public secondaryOracle;\r\n    \r\n    /**\r\n     * @dev Constructor to set the primary `ChainlinkPriceOracle` and the secondary `PriceOracle`.\r\n     */\r\n    constructor(ChainlinkPriceOracle _chainlinkOracle, PriceOracle _secondaryOracle) public {\r\n        require(address(_chainlinkOracle) != address(0), \"ChainlinkPriceOracle not set.\");\r\n        require(address(_secondaryOracle) != address(0), \"Secondary price oracle not set.\");\r\n        chainlinkOracle = _chainlinkOracle;\r\n        secondaryOracle = _secondaryOracle;\r\n    }\r\n\r\n    /**\r\n     * @dev Returns the price in ETH of the token underlying `cToken` (implements `PriceOracle`).\r\n     */\r\n    function getUnderlyingPrice(CToken cToken) external override view returns (uint) {\r\n        // Return 1e18 for ETH\r\n        if (cToken.isCEther()) return 1e18;\r\n\r\n        // Get underlying ERC20 token address\r\n        address underlying = address(CErc20(address(cToken)).underlying());\r\n\r\n        // Return 1e18 for WETH\r\n        if (underlying == 0xC02aaA39b223FE8D0A0e5C4F27eAD9083C756Cc2) return 1e18;\r\n\r\n        // Try to get Chainlink price\r\n        if (chainlinkOracle.hasPriceFeed(underlying)) return chainlinkOracle.getUnderlyingPrice(cToken);\r\n\r\n        // Otherwise, get price from secondary oracle\r\n        return secondaryOracle.getUnderlyingPrice(cToken);\r\n    }\r\n}\r\n",
  "sourcePath": "C:/Users/david/Dropbox/Rari/v1/fuse-contracts/contracts/oracles/PreferredPriceOracle.sol",
  "compiler": {
    "name": "solc",
    "version": "0.6.12+commit.27d51765.Emscripten.clang"
  },
  "schemaVersion": "3.3.3",
  "updatedAt": "2021-03-01T23:53:41.463Z",
  "devdoc": {
    "author": "David Lucid <david@rari.capital> (https://github.com/davidlucid)",
    "details": "Implements `PriceOracle`.",
    "kind": "dev",
    "methods": {
      "constructor": {
        "details": "Constructor to set the primary `ChainlinkPriceOracle` and the secondary `PriceOracle`."
      },
      "getUnderlyingPrice(address)": {
        "details": "Returns the price in ETH of the token underlying `cToken` (implements `PriceOracle`)."
      }
    },
    "stateVariables": {
      "chainlinkOracle": {
        "details": "The primary `ChainlinkPriceOracle`."
      },
      "secondaryOracle": {
        "details": "The secondary `PriceOracle`."
      }
    },
    "title": "PreferredPriceOracle",
    "version": 1
  },
  "userdoc": {
    "kind": "user",
    "methods": {},
    "notice": "Returns prices from Chainlink or prices from a secondary oracle if an asset's price is not available via Chainlink.",
    "version": 1
  }
}