{
  "contractName": "RecursivePriceOracle",
  "abi": [
    {
      "inputs": [],
      "name": "COMPOUND_COMPTROLLER",
      "outputs": [
        {
          "internalType": "address",
          "name": "",
          "type": "address"
        }
      ],
      "stateMutability": "view",
      "type": "function"
    },
    {
      "inputs": [],
      "name": "CREAM_COMPTROLLER",
      "outputs": [
        {
          "internalType": "address",
          "name": "",
          "type": "address"
        }
      ],
      "stateMutability": "view",
      "type": "function"
    },
    {
      "inputs": [],
      "name": "ETH_USD_PRICE_FEED",
      "outputs": [
        {
          "internalType": "contract AggregatorV3Interface",
          "name": "",
          "type": "address"
        }
      ],
      "stateMutability": "view",
      "type": "function"
    },
    {
      "inputs": [
        {
          "internalType": "contract CToken",
          "name": "cToken",
          "type": "address"
        }
      ],
      "name": "getUnderlyingPrice",
      "outputs": [
        {
          "internalType": "uint256",
          "name": "",
          "type": "uint256"
        }
      ],
      "stateMutability": "view",
      "type": "function"
    }
  ],
  "bytecode": "0x608060405234801561001057600080fd5b50610abe806100206000396000f3fe608060405234801561001057600080fd5b506004361061004c5760003560e01c8063b0f0abe914610051578063cccfe35414610075578063f32192121461007d578063fc57d4df14610085575b600080fd5b6100596100bd565b604080516001600160a01b039092168252519081900360200190f35b6100596100d5565b6100596100ed565b6100ab6004803603602081101561009b57600080fd5b50356001600160a01b0316610105565b60408051918252519081900360200190f35b735f4ec3df9cbd43714fe2740f5e3616155c5b841981565b733d5bc3c8d13dcb8bf317092d84783c2697ae925881565b733d9819210a31b4961b30ef54be2aed79b9c9cd3b81565b600080826001600160a01b0316636f307dc36040518163ffffffff1660e01b815260040160206040518083038186803b15801561014157600080fd5b505afa158015610155573d6000803e3d6000fd5b505050506040513d602081101561016b57600080fd5b505160408051635fe3b56760e01b815290519192506000916001600160a01b03841691635fe3b567916004808301926020929190829003018186803b1580156101b357600080fd5b505afa1580156101c7573d6000803e3d6000fd5b505050506040513d60208110156101dd57600080fd5b505190506001600160a01b038116733d9819210a31b4961b30ef54be2aed79b9c9cd3b14156105c55761034b826001600160a01b03166395d89b416040518163ffffffff1660e01b815260040160006040518083038186803b15801561024257600080fd5b505afa158015610256573d6000803e3d6000fd5b505050506040513d6000823e601f3d908101601f19168201604052602081101561027f57600080fd5b810190808051604051939291908464010000000082111561029f57600080fd5b9083019060208201858111156102b457600080fd5b82516401000000008111828201881017156102ce57600080fd5b82525081516020918201929091019080838360005b838110156102fb5781810151838201526020016102e3565b50505050905090810190601f1680156103285780820380516001836020036101000a031916815260200191505b506040818101905260048152630c68aa8960e31b60208201529250610840915050565b156103bf57816001600160a01b031663182df0f56040518163ffffffff1660e01b815260040160206040518083038186803b15801561038957600080fd5b505afa15801561039d573d6000803e3d6000fd5b505050506040513d60208110156103b357600080fd5b5051925061083b915050565b6000735f4ec3df9cbd43714fe2740f5e3616155c5b84196001600160a01b031663feaf968c6040518163ffffffff1660e01b815260040160a06040518083038186803b15801561040e57600080fd5b505afa158015610422573d6000803e3d6000fd5b505050506040513d60a081101561043857600080fd5b5060200151905060008113610453576000935050505061083b565b6105bb610465826402540be400610928565b6105b5846001600160a01b0316637dc0d1d06040518163ffffffff1660e01b815260040160206040518083038186803b1580156104a157600080fd5b505afa1580156104b5573d6000803e3d6000fd5b505050506040513d60208110156104cb57600080fd5b50516040805163fc57d4df60e01b81526001600160a01b0389811660048301529151919092169163fc57d4df916024808301926020929190829003018186803b15801561051757600080fd5b505afa15801561052b573d6000803e3d6000fd5b505050506040513d602081101561054157600080fd5b50516040805163182df0f560e01b815290516001600160a01b0389169163182df0f5916004808301926020929190829003018186803b15801561058357600080fd5b505afa158015610597573d6000803e3d6000fd5b505050506040513d60208110156105ad57600080fd5b505190610928565b90610988565b935050505061083b565b6001600160a01b038116733d5bc3c8d13dcb8bf317092d84783c2697ae9258141561066957610626826001600160a01b03166395d89b416040518163ffffffff1660e01b815260040160006040518083038186803b15801561024257600080fd5b1561066457816001600160a01b031663182df0f56040518163ffffffff1660e01b815260040160206040518083038186803b15801561038957600080fd5b61070c565b816001600160a01b031663ac784ddc6040518163ffffffff1660e01b815260040160206040518083038186803b1580156106a257600080fd5b505afa1580156106b6573d6000803e3d6000fd5b505050506040513d60208110156106cc57600080fd5b50511561070c57816001600160a01b031663182df0f56040518163ffffffff1660e01b815260040160206040518083038186803b15801561038957600080fd5b610836670de0b6b3a76400006105b5836001600160a01b0316637dc0d1d06040518163ffffffff1660e01b815260040160206040518083038186803b15801561075457600080fd5b505afa158015610768573d6000803e3d6000fd5b505050506040513d602081101561077e57600080fd5b50516040805163fc57d4df60e01b81526001600160a01b0388811660048301529151919092169163fc57d4df916024808301926020929190829003018186803b1580156107ca57600080fd5b505afa1580156107de573d6000803e3d6000fd5b505050506040513d60208110156107f457600080fd5b50516040805163182df0f560e01b815290516001600160a01b0388169163182df0f5916004808301926020929190829003018186803b15801561058357600080fd5b925050505b919050565b6000816040516020018082805190602001908083835b602083106108755780518252601f199092019160209182019101610856565b6001836020036101000a03801982511681845116808217855250505050505090500191505060405160208183030381529060405280519060200120836040516020018082805190602001908083835b602083106108e35780518252601f1990920191602091820191016108c4565b6001836020036101000a038019825116818451168082178552505050505050905001915050604051602081830303815290604052805190602001201490505b92915050565b60008261093757506000610922565b8282028284828161094457fe5b04146109815760405162461bcd60e51b8152600401808060200182810382526021815260200180610a686021913960400191505060405180910390fd5b9392505050565b600061098183836040518060400160405280601a81526020017f536166654d6174683a206469766973696f6e206279207a65726f00000000000081525060008183610a515760405162461bcd60e51b81526004018080602001828103825283818151815260200191508051906020019080838360005b83811015610a165781810151838201526020016109fe565b50505050905090810190601f168015610a435780820380516001836020036101000a031916815260200191505b509250505060405180910390fd5b506000838581610a5d57fe5b049594505050505056fe536166654d6174683a206d756c7469706c69636174696f6e206f766572666c6f77a264697066735822122086037a51fcf22c604b0dc1223af4108bab9bb571abd74ffe83e33e06649d857364736f6c634300060c0033",
  "immutableReferences": {},
  "source": "pragma solidity 0.6.12;\r\n\r\nimport \"@openzeppelin/contracts-upgradeable/math/SafeMathUpgradeable.sol\";\r\n\r\nimport \"../external/compound/PriceOracle.sol\";\r\nimport \"../external/compound/CToken.sol\";\r\nimport \"../external/compound/CErc20.sol\";\r\nimport \"../external/compound/Comptroller.sol\";\r\n\r\nimport \"../external/chainlink/AggregatorV3Interface.sol\";\r\n\r\n/**\r\n * @title RecursivePriceOracle\r\n * @notice Returns prices from other cTokens (from Compound or from Fuse).\r\n * @dev Implements `PriceOracle`.\r\n * @author David Lucid <david@rari.capital> (https://github.com/davidlucid)\r\n */\r\ncontract RecursivePriceOracle is PriceOracle {\r\n    using SafeMathUpgradeable for uint256;\r\n\r\n    /**\r\n     * @dev Compound Comptroller address.\r\n     */\r\n    address public constant COMPOUND_COMPTROLLER = 0x3d9819210A31b4961b30EF54bE2aeD79B9c9Cd3B;\r\n\r\n    /**\r\n     * @dev Cream Comptroller address.\r\n     */\r\n    address public constant CREAM_COMPTROLLER = 0x3d5BC3c8d13dcB8bF317092d84783c2697AE9258;\r\n\r\n    /**\r\n     * @dev Chainlink ETH/USD price feed contract.\r\n     */\r\n    AggregatorV3Interface public constant ETH_USD_PRICE_FEED = AggregatorV3Interface(0x5f4eC3Df9cbd43714FE2740f5E3616155c5b8419);\r\n\r\n    /**\r\n     * @dev Returns the price in ETH of the token underlying `cToken` (implements `PriceOracle`).\r\n     */\r\n    function getUnderlyingPrice(CToken cToken) external override view returns (uint) {\r\n        // Get cToken's underlying cToken\r\n        CToken underlying = CToken(CErc20(address(cToken)).underlying());\r\n\r\n        // Get Comptroller\r\n        Comptroller comptroller = Comptroller(underlying.comptroller());\r\n\r\n        // Check for Compound Comptroller\r\n        if (address(comptroller) == COMPOUND_COMPTROLLER) {\r\n            // If cETH, return cETH/ETH exchange rate\r\n            if (compareStrings(underlying.symbol(), \"cETH\")) return underlying.exchangeRateStored();\r\n\r\n            // Compound cErc20: cToken/token price * token/USD price / ETH/USD price = cToken/ETH price\r\n            (, int256 usdPerEth, , , ) = ETH_USD_PRICE_FEED.latestRoundData();\r\n            if (usdPerEth <= 0) return 0;\r\n            return underlying.exchangeRateStored().mul(comptroller.oracle().getUnderlyingPrice(underlying)).div(uint256(usdPerEth).mul(1e10));\r\n        }\r\n\r\n        // If cETH, return cETH/ETH exchange rate\r\n        if (address(comptroller) == CREAM_COMPTROLLER) {\r\n            // Cream\r\n            if (compareStrings(underlying.symbol(), \"cETH\")) return underlying.exchangeRateStored();\r\n        } else if (underlying.isCEther()) {\r\n            // Fuse\r\n            return underlying.exchangeRateStored();\r\n        }\r\n\r\n        // Fuse cTokens: cToken/token price * token/ETH price = cToken/ETH price\r\n        return underlying.exchangeRateStored().mul(comptroller.oracle().getUnderlyingPrice(underlying)).div(1e18);\r\n    }\r\n\r\n    /**\r\n     * @dev Compares two strings.\r\n     */\r\n    function compareStrings(string memory a, string memory b) internal pure returns (bool) {\r\n        return (keccak256(abi.encodePacked((a))) == keccak256(abi.encodePacked((b))));\r\n    }\r\n}\r\n",
  "sourcePath": "C:/Users/david/Dropbox/Rari/v1/fuse-contracts/contracts/oracles/RecursivePriceOracle.sol",
  "compiler": {
    "name": "solc",
    "version": "0.6.12+commit.27d51765.Emscripten.clang"
  },
  "schemaVersion": "3.3.3",
  "updatedAt": "2021-03-01T23:53:41.466Z",
  "devdoc": {
    "author": "David Lucid <david@rari.capital> (https://github.com/davidlucid)",
    "details": "Implements `PriceOracle`.",
    "kind": "dev",
    "methods": {
      "getUnderlyingPrice(address)": {
        "details": "Returns the price in ETH of the token underlying `cToken` (implements `PriceOracle`)."
      }
    },
    "stateVariables": {
      "COMPOUND_COMPTROLLER": {
        "details": "Compound Comptroller address."
      },
      "CREAM_COMPTROLLER": {
        "details": "Cream Comptroller address."
      },
      "ETH_USD_PRICE_FEED": {
        "details": "Chainlink ETH/USD price feed contract."
      }
    },
    "title": "RecursivePriceOracle",
    "version": 1
  },
  "userdoc": {
    "kind": "user",
    "methods": {},
    "notice": "Returns prices from other cTokens (from Compound or from Fuse).",
    "version": 1
  }
}