{
  "contractName": "UniswapV3TwapPriceOracleV2Factory",
  "abi": [
    {
      "inputs": [],
      "name": "WETH",
      "outputs": [
        {
          "internalType": "address",
          "name": "",
          "type": "address"
        }
      ],
      "stateMutability": "view",
      "type": "function",
      "constant": true
    },
    {
      "inputs": [
        {
          "internalType": "address",
          "name": "",
          "type": "address"
        },
        {
          "internalType": "uint256",
          "name": "",
          "type": "uint256"
        },
        {
          "internalType": "address",
          "name": "",
          "type": "address"
        }
      ],
      "name": "oracles",
      "outputs": [
        {
          "internalType": "contract UniswapV3TwapPriceOracleV2",
          "name": "",
          "type": "address"
        }
      ],
      "stateMutability": "view",
      "type": "function",
      "constant": true
    },
    {
      "inputs": [
        {
          "internalType": "address",
          "name": "uniswapV3Factory",
          "type": "address"
        },
        {
          "internalType": "uint256",
          "name": "feeTier",
          "type": "uint256"
        },
        {
          "internalType": "address",
          "name": "baseToken",
          "type": "address"
        }
      ],
      "name": "deploy",
      "outputs": [
        {
          "internalType": "address",
          "name": "",
          "type": "address"
        }
      ],
      "stateMutability": "nonpayable",
      "type": "function"
    }
  ],
  "bytecode": "0x608060405234801561001057600080fd5b5061146f806100206000396000f3fe608060405234801561001057600080fd5b50600436106100415760003560e01c806368c4a1ee146100465780638408681d14610098578063ad5c4648146100ce575b600080fd5b61007c6004803603606081101561005c57600080fd5b506001600160a01b038135811691602081013591604090910135166100d6565b604080516001600160a01b039092168252519081900360200190f35b61007c600480360360608110156100ae57600080fd5b506001600160a01b03813581169160208101359160409091013516610101565b61007c61034a565b600060208181529381526040808220855292815282812090935282529020546001600160a01b031681565b60006001600160a01b0382166101295773c02aaa39b223fe8d0a0e5c4f27ead9083c756cc291505b6001600160a01b0380851660009081526020818152604080832087845282528083208685168452909152902054168015610164579050610343565b60606040518060200161017690610362565b6020820181038252601f19601f8201166040525086868660405160200180846001600160a01b03168152602001838152602001826001600160a01b0316815260200193505050506040516020818303038152906040526040516020018083805190602001908083835b602083106101fe5780518252601f1990920191602091820191016101df565b51815160209384036101000a600019018019909216911617905285519190930192850191508083835b602083106102465780518252601f199092019160209182019101610227565b51815160209384036101000a60001901801990921691161790526040805192909401828103601f1901835280855260608e811b6bffffffffffffffffffffffff1990811683850152603483018f9052908d901b1660548201528451808203604801815260689091019094528351938101939093208151919750955060009450859350918601905083f59050803b6102fc577f4661696c656420746f206465706c6f79207072696365206f7261636c652e00006000fd5b6001600160a01b038881166000908152602081815260408083208b845282528083208a85168452909152902080546001600160a01b03191691831691909117905593505050505b9392505050565b73c02aaa39b223fe8d0a0e5c4f27ead9083c756cc281565b6110ca806103708339019056fe60e060405234801561001057600080fd5b506040516110ca3803806110ca8339818101604052606081101561003357600080fd5b50805160208201516040909201516001600160601b0319606083901b166080526001600160e81b031960e884901b1660a0529091906001600160a01b0381161561007d5780610093565b73c02aaa39b223fe8d0a0e5c4f27ead9083c756cc25b6001600160601b031960609190911b1660c05250505060805160601c60a05160e81c60c05160601c610fc9610101600039806101d052806103d15280610526528061054e5280610595528061062852508061017b52806103fd52508061015752806104295250610fc96000f3fe608060405234801561001057600080fd5b506004361061007d5760003560e01c8063ad5c46481161005b578063ad5c4648146100e7578063aea91078146100ef578063c55dae6314610127578063fc57d4df1461012f5761007d565b80635b5491821461008257806372f5d98a146100a65780637ca25184146100c6575b600080fd5b61008a610155565b604080516001600160a01b039092168252519081900360200190f35b6100ae610179565b6040805162ffffff9092168252519081900360200190f35b6100ce61019d565b6040805163ffffffff9092168252519081900360200190f35b61008a6101a3565b6101156004803603602081101561010557600080fd5b50356001600160a01b03166101bb565b60408051918252519081900360200190f35b61008a6101ce565b6101156004803603602081101561014557600080fd5b50356001600160a01b03166101f2565b7f000000000000000000000000000000000000000000000000000000000000000081565b7f000000000000000000000000000000000000000000000000000000000000000081565b61025881565b73c02aaa39b223fe8d0a0e5c4f27ead9083c756cc281565b60006101c68261037b565b90505b919050565b7f000000000000000000000000000000000000000000000000000000000000000081565b6000816001600160a01b031663ac784ddc6040518163ffffffff1660e01b815260040160206040518083038186803b15801561022d57600080fd5b505afa158015610241573d6000803e3d6000fd5b505050506040513d602081101561025757600080fd5b50511561026d5750670de0b6b3a76400006101c9565b6000826001600160a01b0316636f307dc36040518163ffffffff1660e01b815260040160206040518083038186803b1580156102a857600080fd5b505afa1580156102bc573d6000803e3d6000fd5b505050506040513d60208110156102d257600080fd5b50516040805163313ce56760e01b815290519192506000916001600160a01b0384169163313ce567916004808301926020929190829003018186803b15801561031a57600080fd5b505afa15801561032e573d6000803e3d6000fd5b505050506040513d602081101561034457600080fd5b505160ff16600a0a90506103738161036d670de0b6b3a76400006103678661037b565b906106d0565b90610732565b949350505050565b60006001600160a01b03821673c02aaa39b223fe8d0a0e5c4f27ead9083c756cc214156103b15750670de0b6b3a76400006101c9565b60408051630b4c774160e11b81526001600160a01b0384811660048301527f00000000000000000000000000000000000000000000000000000000000000008116602483015262ffffff7f000000000000000000000000000000000000000000000000000000000000000016604483015291516000927f00000000000000000000000000000000000000000000000000000000000000001691631698ee82916064808301926020929190829003018186803b15801561046f57600080fd5b505afa158015610483573d6000803e3d6000fd5b505050506040513d602081101561049957600080fd5b5051905060006104ab82610258610799565b90506000846001600160a01b031663313ce5676040518163ffffffff1660e01b815260040160206040518083038186803b1580156104e857600080fd5b505afa1580156104fc573d6000803e3d6000fd5b505050506040513d602081101561051257600080fd5b505160ff16600a0a9050600061054a8383887f0000000000000000000000000000000000000000000000000000000000000000610a99565b90507f00000000000000000000000000000000000000000000000000000000000000006001600160a01b031673c02aaa39b223fe8d0a0e5c4f27ead9083c756cc2146106c4576106bf7f00000000000000000000000000000000000000000000000000000000000000006001600160a01b031663313ce5676040518163ffffffff1660e01b815260040160206040518083038186803b1580156105ec57600080fd5b505afa158015610600573d6000803e3d6000fd5b505050506040513d602081101561061657600080fd5b5051604080516315d5220f60e31b81527f00000000000000000000000000000000000000000000000000000000000000006001600160a01b03166004820152905160ff909216600a0a9161036d91339163aea9107891602480820192602092909190829003018186803b15801561068c57600080fd5b505afa1580156106a0573d6000803e3d6000fd5b505050506040513d60208110156106b657600080fd5b505184906106d0565b6106c6565b805b9695505050505050565b6000826106df5750600061072c565b828202828482816106ec57fe5b04146107295760405162461bcd60e51b8152600401808060200182810382526021815260200180610f736021913960400191505060405180910390fd5b90505b92915050565b6000808211610788576040805162461bcd60e51b815260206004820152601a60248201527f536166654d6174683a206469766973696f6e206279207a65726f000000000000604482015290519081900360640190fd5b81838161079157fe5b049392505050565b600063ffffffff82166107d8576040805162461bcd60e51b8152602060048201526002602482015261042560f41b604482015290519081900360640190fd5b6040805160028082526060808301845292602083019080368337019050509050828160008151811061080657fe5b602002602001019063ffffffff16908163ffffffff168152505060008160018151811061082f57fe5b63ffffffff90921660209283029190910182015260405163883bdbfd60e01b8152600481018281528351602483015283516060936001600160a01b0389169363883bdbfd9387939092839260440191858201910280838360005b838110156108a1578181015183820152602001610889565b505050509050019250505060006040518083038186803b1580156108c457600080fd5b505afa1580156108d8573d6000803e3d6000fd5b505050506040513d6000823e601f3d908101601f19168201604090815281101561090157600080fd5b810190808051604051939291908464010000000082111561092157600080fd5b90830190602082018581111561093657600080fd5b825186602082028301116401000000008211171561095357600080fd5b82525081516020918201928201910280838360005b83811015610980578181015183820152602001610968565b50505050905001604052602001805160405193929190846401000000008211156109a957600080fd5b9083019060208201858111156109be57600080fd5b82518660208202830111640100000000821117156109db57600080fd5b82525081516020918201928201910280838360005b83811015610a085781810151838201526020016109f0565b50505050905001604052505050509050600081600081518110610a2757fe5b602002602001015182600181518110610a3c57fe5b60200260200101510390508463ffffffff168160060b81610a5957fe5b05935060008160060b128015610a8357508463ffffffff168160060b81610a7c57fe5b0760060b15155b15610a9057600019909301925b50505092915050565b600080610aa586610b90565b90506001600160801b036001600160a01b03821611610b14576001600160a01b0380821680029084811690861610610af457610aef600160c01b876001600160801b031683610ec2565b610b0c565b610b0c81876001600160801b0316600160c01b610ec2565b925050610b87565b6000610b336001600160a01b0383168068010000000000000000610ec2565b9050836001600160a01b0316856001600160a01b031610610b6b57610b66600160801b876001600160801b031683610ec2565b610b83565b610b8381876001600160801b0316600160801b610ec2565b9250505b50949350505050565b60008060008360020b12610ba7578260020b610baf565b8260020b6000035b9050620d89e8811115610bed576040805162461bcd60e51b81526020600482015260016024820152601560fa1b604482015290519081900360640190fd5b600060018216610c0157600160801b610c13565b6ffffcb933bd6fad37aa2d162d1a5940015b70ffffffffffffffffffffffffffffffffff1690506002821615610c47576ffff97272373d413259a46990580e213a0260801c5b6004821615610c66576ffff2e50f5f656932ef12357cf3c7fdcc0260801c5b6008821615610c85576fffe5caca7e10e4e61c3624eaa0941cd00260801c5b6010821615610ca4576fffcb9843d60f6159c9db58835c9266440260801c5b6020821615610cc3576fff973b41fa98c081472e6896dfb254c00260801c5b6040821615610ce2576fff2ea16466c96a3843ec78b326b528610260801c5b6080821615610d01576ffe5dee046a99a2a811c461f1969c30530260801c5b610100821615610d21576ffcbe86c7900a88aedcffc83b479aa3a40260801c5b610200821615610d41576ff987a7253ac413176f2b074cf7815e540260801c5b610400821615610d61576ff3392b0822b70005940c7a398e4b70f30260801c5b610800821615610d81576fe7159475a2c29b7443b29c7fa6e889d90260801c5b611000821615610da1576fd097f3bdfd2022b8845ad8f792aa58250260801c5b612000821615610dc1576fa9f746462d870fdf8a65dc1f90e061e50260801c5b614000821615610de1576f70d869a156d2a1b890bb3df62baf32f70260801c5b618000821615610e01576f31be135f97d08fd981231505542fcfa60260801c5b62010000821615610e22576f09aa508b5b7a84e1c677de54f3e99bc90260801c5b62020000821615610e42576e5d6af8dedb81196699c329225ee6040260801c5b62040000821615610e61576d2216e584f5fa1ea926041bedfe980260801c5b62080000821615610e7e576b048a170391f7dc42444e8fa20260801c5b60008460020b1315610e99578060001981610e9557fe5b0490505b640100000000810615610ead576001610eb0565b60005b60ff16602082901c0192505050919050565b6000808060001985870986860292508281109083900303905080610ef85760008411610eed57600080fd5b508290049050610f6b565b808411610f0457600080fd5b6000848688096000868103871696879004966002600389028118808a02820302808a02820302808a02820302808a02820302808a02820302808a02909103029181900381900460010186841190950394909402919094039290920491909117919091029150505b939250505056fe536166654d6174683a206d756c7469706c69636174696f6e206f766572666c6f77a2646970667358221220bfa71471357c9ab29419d4cb1013c6afc54e36dd6c1332ec53682645b9524f2c64736f6c634300060c0033a2646970667358221220a216bcc7d5a7d5a9cd779d0de33646f26a355cc2c588ce942f9a12086080a6ba64736f6c634300060c0033",
  "immutableReferences": {},
  "source": "// SPDX-License-Identifier: UNLICENSED\r\npragma solidity 0.6.12;\r\n\r\nimport \"./UniswapV3TwapPriceOracleV2.sol\";\r\n\r\n/**\r\n * @title UniswapV3TwapPriceOracleV2Factory\r\n * @notice Deploys and catalogs UniswapV3TwapPriceOracleV2 contracts.\r\n * @author David Lucid <david@rari.capital> (https://github.com/davidlucid)\r\n */\r\ncontract UniswapV3TwapPriceOracleV2Factory {\r\n    using SafeMathUpgradeable for uint256;\r\n\r\n    /**\r\n     * @notice Deploys a `UniswapV3TwapPriceOracleV2`.\r\n     * @param uniswapV3Factory The `UniswapV3Factory` contract of the pairs for which this oracle will be used.\r\n     * @param feeTier The fee tier of the pairs for which this oracle will be used.\r\n     * @param baseToken The base token of the pairs for which this oracle will be used.\r\n     */\r\n    function deploy(address uniswapV3Factory, uint256 feeTier, address baseToken) external returns (address) {\r\n        // Input validation\r\n        if (baseToken == address(0)) baseToken = address(WETH);\r\n\r\n        // Return existing oracle if present\r\n        address currentOracle = address(oracles[uniswapV3Factory][feeTier][baseToken]);\r\n        if (currentOracle != address(0)) return currentOracle;\r\n\r\n        // Deploy oracle\r\n        bytes memory bytecode = abi.encodePacked(type(UniswapV3TwapPriceOracleV2).creationCode, abi.encode(uniswapV3Factory, feeTier, baseToken));\r\n        bytes32 salt = keccak256(abi.encodePacked(uniswapV3Factory, feeTier, baseToken));\r\n        address oracle;\r\n\r\n        assembly {\r\n            oracle := create2(0, add(bytecode, 0x20), mload(bytecode), salt)\r\n            if iszero(extcodesize(oracle)) {\r\n                revert(0, \"Failed to deploy price oracle.\")\r\n            }\r\n        }\r\n\r\n        // Set oracle in state\r\n        oracles[uniswapV3Factory][feeTier][baseToken] = UniswapV3TwapPriceOracleV2(oracle);\r\n\r\n        // Return oracle address\r\n        return oracle;\r\n    }\r\n\r\n    /**\r\n     * @dev WETH token contract address.\r\n     */\r\n    address constant public WETH = 0xC02aaA39b223FE8D0A0e5C4F27eAD9083C756Cc2;\r\n\r\n    /**\r\n     * @notice Maps `UniswapV3Factory` contracts to fee tiers to base tokens to `UniswapV3TwapPriceOracleV2` contract addresses.\r\n     */\r\n    mapping(address => mapping(uint256 => mapping(address => UniswapV3TwapPriceOracleV2))) public oracles;\r\n}\r\n",
  "sourcePath": "C:/Users/david/Dropbox/Rari/v1/fuse-contracts/contracts/oracles/UniswapV3TwapPriceOracleV2Factory.sol",
  "compiler": {
    "name": "solc",
    "version": "0.6.12+commit.27d51765.Emscripten.clang"
  },
  "schemaVersion": "3.2.3",
  "updatedAt": "2021-09-27T02:26:24.128Z",
  "networkType": "ethereum",
  "devdoc": {
    "author": "David Lucid <david@rari.capital> (https://github.com/davidlucid)",
    "kind": "dev",
    "methods": {
      "deploy(address,uint256,address)": {
        "params": {
          "baseToken": "The base token of the pairs for which this oracle will be used.",
          "feeTier": "The fee tier of the pairs for which this oracle will be used.",
          "uniswapV3Factory": "The `UniswapV3Factory` contract of the pairs for which this oracle will be used."
        }
      }
    },
    "stateVariables": {
      "WETH": {
        "details": "WETH token contract address."
      }
    },
    "title": "UniswapV3TwapPriceOracleV2Factory",
    "version": 1
  },
  "userdoc": {
    "kind": "user",
    "methods": {
      "deploy(address,uint256,address)": {
        "notice": "Deploys a `UniswapV3TwapPriceOracleV2`."
      },
      "oracles(address,uint256,address)": {
        "notice": "Maps `UniswapV3Factory` contracts to fee tiers to base tokens to `UniswapV3TwapPriceOracleV2` contract addresses."
      }
    },
    "notice": "Deploys and catalogs UniswapV3TwapPriceOracleV2 contracts.",
    "version": 1
  }
}