{
  "contractName": "UniswapLpTokenPriceOracle",
  "abi": [
    {
      "inputs": [
        {
          "internalType": "bool",
          "name": "_useRootOracle",
          "type": "bool"
        }
      ],
      "stateMutability": "nonpayable",
      "type": "constructor"
    },
    {
      "inputs": [],
      "name": "useRootOracle",
      "outputs": [
        {
          "internalType": "bool",
          "name": "",
          "type": "bool"
        }
      ],
      "stateMutability": "view",
      "type": "function"
    },
    {
      "inputs": [
        {
          "internalType": "address",
          "name": "underlying",
          "type": "address"
        }
      ],
      "name": "price",
      "outputs": [
        {
          "internalType": "uint256",
          "name": "",
          "type": "uint256"
        }
      ],
      "stateMutability": "view",
      "type": "function"
    },
    {
      "inputs": [
        {
          "internalType": "contract CToken",
          "name": "cToken",
          "type": "address"
        }
      ],
      "name": "getUnderlyingPrice",
      "outputs": [
        {
          "internalType": "uint256",
          "name": "",
          "type": "uint256"
        }
      ],
      "stateMutability": "view",
      "type": "function"
    }
  ],
  "bytecode": "0x60806040526000805460ff1916600117905534801561001d57600080fd5b50604051610a9e380380610a9e8339818101604052602081101561004057600080fd5b50516000805491151560ff19909216919091179055610a3a806100646000396000f3fe608060405234801561001057600080fd5b50600436106100415760003560e01c806343f69fc714610046578063aea9107814610062578063fc57d4df1461009a575b600080fd5b61004e6100c0565b604080519115158252519081900360200190f35b6100886004803603602081101561007857600080fd5b50356001600160a01b03166100c9565b60408051918252519081900360200190f35b610088600480360360208110156100b057600080fd5b50356001600160a01b03166100dc565b60005460ff1681565b60006100d4826101e5565b90505b919050565b600080826001600160a01b0316636f307dc36040518163ffffffff1660e01b815260040160206040518083038186803b15801561011857600080fd5b505afa15801561012c573d6000803e3d6000fd5b505050506040513d602081101561014257600080fd5b50516040805163313ce56760e01b815290519192506101de916001600160a01b0384169163313ce567916004808301926020929190829003018186803b15801561018b57600080fd5b505afa15801561019f573d6000803e3d6000fd5b505050506040513d60208110156101b557600080fd5b505160ff16600a0a6101d8670de0b6b3a76400006101d2856101e5565b906106bf565b90610721565b9392505050565b6000808290506000816001600160a01b03166318160ddd6040518163ffffffff1660e01b815260040160206040518083038186803b15801561022657600080fd5b505afa15801561023a573d6000803e3d6000fd5b505050506040513d602081101561025057600080fd5b5051905080610264576000925050506100d7565b6000806000846001600160a01b0316630902f1ac6040518163ffffffff1660e01b815260040160606040518083038186803b1580156102a257600080fd5b505afa1580156102b6573d6000803e3d6000fd5b505050506040513d60608110156102cc57600080fd5b5080516020808301516040938401518451630dfe168160e01b815294516dffffffffffffffffffffffffffff948516985093909116955093506000926001600160a01b03891692630dfe168192600480840193919291829003018186803b15801561033657600080fd5b505afa15801561034a573d6000803e3d6000fd5b505050506040513d602081101561036057600080fd5b50516040805163d21220a760e01b815290519192506000916001600160a01b0389169163d21220a7916004808301926020929190829003018186803b1580156103a857600080fd5b505afa1580156103bc573d6000803e3d6000fd5b505050506040513d60208110156103d257600080fd5b505160005490915060ff16156105925760006001600160a01b03831673c02aaa39b223fe8d0a0e5c4f27ead9083c756cc21461047f57604080516315d5220f60e31b81526001600160a01b03851660048201529051339163aea91078916024808301926020929190829003018186803b15801561044e57600080fd5b505afa158015610462573d6000803e3d6000fd5b505050506040513d602081101561047857600080fd5b5051610489565b670de0b6b3a76400005b905060006001600160a01b03831673c02aaa39b223fe8d0a0e5c4f27ead9083c756cc21461052857604080516315d5220f60e31b81526001600160a01b03851660048201529051339163aea91078916024808301926020929190829003018186803b1580156104f757600080fd5b505afa15801561050b573d6000803e3d6000fd5b505050506040513d602081101561052157600080fd5b5051610532565b670de0b6b3a76400005b9050600061054c896101d86105478b8b6106bf565b610763565b9050610581600160381b6101d861056285610763565b6101d2600160381b6101d86105768a610763565b6101d28960026106bf565b9a50505050505050505050506100d7565b63ffffffff8316640100000000420663ffffffff1614156105e45760405162461bcd60e51b81526004018080602001828103825260588152602001806109ad6058913960600191505060405180910390fd5b6001600160a01b03821673c02aaa39b223fe8d0a0e5c4f27ead9083c756cc2148061062b57506001600160a01b03811673c02aaa39b223fe8d0a0e5c4f27ead9083c756cc2145b6106665760405162461bcd60e51b815260040180806020018281038252604081526020018061096d6040913960400191505060405180910390fd5b856106a9670de0b6b3a76400006101d260026001600160a01b03871673c02aaa39b223fe8d0a0e5c4f27ead9083c756cc2146106a257886101d2565b89906106bf565b816106b057fe5b049750505050505050506100d7565b6000826106ce5750600061071b565b828202828482816106db57fe5b04146107185760405162461bcd60e51b815260040180806020018281038252602181526020018061094c6021913960400191505060405180910390fd5b90505b92915050565b600061071883836040518060400160405280601a81526020017f536166654d6174683a206469766973696f6e206279207a65726f0000000000008152506108a9565b600081610772575060006100d7565b816001600160801b821061078b5760809190911c9060401b5b6801000000000000000082106107a65760409190911c9060201b5b64010000000082106107bd5760209190911c9060101b5b6201000082106107d25760109190911c9060081b5b61010082106107e65760089190911c9060041b5b601082106107f95760049190911c9060021b5b600882106108055760011b5b600181858161081057fe5b048201901c9050600181858161082257fe5b048201901c9050600181858161083457fe5b048201901c9050600181858161084657fe5b048201901c9050600181858161085857fe5b048201901c9050600181858161086a57fe5b048201901c9050600181858161087c57fe5b048201901c9050600081858161088e57fe5b04905080821061089e57806108a0565b815b95945050505050565b600081836109355760405162461bcd60e51b81526004018080602001828103825283818151815260200191508051906020019080838360005b838110156108fa5781810151838201526020016108e2565b50505050905090810190601f1680156109275780820380516001836020036101000a031916815260200191505b509250505060405180910390fd5b50600083858161094157fe5b049594505050505056fe536166654d6174683a206d756c7469706c69636174696f6e206f766572666c6f77556e6973776170204c5020746f6b656e206e6f7420626173656420696e2045544820616e6420726f6f74206f7261636c65206e6f7420617661696c61626c652e556e6973776170204c5020746f6b656e20776173207570646174656420696e207468697320626c6f636b2e20526576657274696e672064756520746f207269736b206f66207072696365206d616e6970756c6174696f6e2ea26469706673582212201981c011750c600c6372d4c908e25aec0f5ded588a17165d39563bd9195a84ce64736f6c634300060c0033",
  "immutableReferences": {},
  "source": "pragma solidity 0.6.12;\r\n\r\nimport \"@openzeppelin/contracts-upgradeable/math/SafeMathUpgradeable.sol\";\r\nimport \"@openzeppelin/contracts-upgradeable/token/ERC20/ERC20Upgradeable.sol\";\r\n\r\nimport \"../external/compound/PriceOracle.sol\";\r\nimport \"../external/compound/CToken.sol\";\r\nimport \"../external/compound/CErc20.sol\";\r\n\r\nimport \"../external/uniswap/IUniswapV2Pair.sol\";\r\n\r\nimport \"./BasePriceOracle.sol\";\r\n\r\n/**\r\n * @title UniswapLpTokenPriceOracle\r\n * @author David Lucid <david@rari.capital> (https://github.com/davidlucid)\r\n * @notice UniswapLpTokenPriceOracle is a price oracle for Uniswap (and SushiSwap) LP tokens.\r\n * @dev Implements the `PriceOracle` interface used by Fuse pools (and Compound v2).\r\n */\r\ncontract UniswapLpTokenPriceOracle is PriceOracle {\r\n    using SafeMathUpgradeable for uint256;\r\n\r\n    /**\r\n     * @dev Boolean indicating if `msg.sender` is to be used as the root oracle instead of using current Uniswap market conditions.\r\n     */\r\n    bool public useRootOracle = true;\r\n\r\n    /**\r\n     * @notice Constructor for the Uniswap LP token price oracle.\r\n     * @param _useRootOracle Boolean indicating if `msg.sender` is to be used as the root oracle instead of using current Uniswap market conditions (be warned of security risks when not using a trusted root oracle).\r\n     */\r\n    constructor(bool _useRootOracle) public {\r\n        useRootOracle = _useRootOracle;\r\n    }\r\n\r\n    /**\r\n     * @dev WETH contract address.\r\n     */\r\n    address constant private WETH_ADDRESS = 0xC02aaA39b223FE8D0A0e5C4F27eAD9083C756Cc2;\r\n\r\n    /**\r\n     * @notice Get the LP token price price for an underlying token address\r\n     * @param underlying The underlying token address for which to get the price (set to zero address for ETH)\r\n     * @return Price denominated in ETH (scaled by 1e18)\r\n     */\r\n    function price(address underlying) external view returns (uint) {\r\n        return _price(underlying);\r\n    }\r\n\r\n    /**\r\n     * @notice Get the underlying price of a cToken\r\n     * @dev Implements the PriceOracle interface for Fuse pools (and Compound v2).\r\n     * @param cToken The cToken address for price retrieval\r\n     * @return Price denominated in ETH, with 18 decimals, for the given cToken address\r\n     */\r\n    function getUnderlyingPrice(CToken cToken) external override view returns (uint) {\r\n        address underlying = CErc20(address(cToken)).underlying();\r\n        // Comptroller needs prices to be scaled by 1e(36 - decimals)\r\n        // Since `_price` returns prices scaled by 18 decimals, we must scale them by 1e(36 - 18 - decimals)\r\n        return _price(underlying).mul(1e18).div(10 ** uint256(ERC20Upgradeable(underlying).decimals()));\r\n    }\r\n\r\n    /**\r\n     * @dev Fetches the fair LP token token/ETH price from Uniswap, with 18 decimals of precision.\r\n     */\r\n    function _price(address token) internal view virtual returns (uint) {\r\n        IUniswapV2Pair pair = IUniswapV2Pair(token);\r\n        uint totalSupply = pair.totalSupply();\r\n        if (totalSupply == 0) return 0;\r\n        (uint reserve0, uint reserve1, uint32 blockTimestampLast) = pair.getReserves();\r\n        address token0 = pair.token0();\r\n        address token1 = pair.token1();\r\n\r\n        if (useRootOracle) {\r\n            // Get fair price of non-WETH token (underlying the pair) in terms of ETH\r\n            uint token0FairPrice = token0 == WETH_ADDRESS ? 1e18 : BasePriceOracle(msg.sender).price(token0);\r\n            uint token1FairPrice = token1 == WETH_ADDRESS ? 1e18 : BasePriceOracle(msg.sender).price(token1);\r\n\r\n            // Implementation from https://github.com/AlphaFinanceLab/homora-v2/blob/e643392d582c81f6695136971cff4b685dcd2859/contracts/oracle/UniswapV2Oracle.sol#L18\r\n            uint256 sqrtK = sqrt(reserve0.mul(reserve1)).div(totalSupply);\r\n            return sqrtK.mul(2).mul(sqrt(token0FairPrice)).div(2 ** 56).mul(sqrt(token1FairPrice)).div(2 ** 56);\r\n        } else {\r\n            // Get current LP token price (ETH-based pairs only)\r\n            // Be warned of security risks of using Uniswap spot prices\r\n            require(uint32(block.timestamp % 2 ** 32) != blockTimestampLast, \"Uniswap LP token was updated in this block. Reverting due to risk of price manipulation.\");\r\n            require(token0 == WETH_ADDRESS || token1 == WETH_ADDRESS, \"Uniswap LP token not based in ETH and root oracle not available.\");\r\n            return (token0 == WETH_ADDRESS ? reserve0 : reserve1).mul(2).mul(1e18) / totalSupply;\r\n        }\r\n    }\r\n\r\n    /**\r\n     * @dev Fast square root function.\r\n     * Implementation from: https://github.com/Uniswap/uniswap-lib/commit/99f3f28770640ba1bb1ff460ac7c5292fb8291a0\r\n     * Original implementation: https://github.com/abdk-consulting/abdk-libraries-solidity/blob/master/ABDKMath64x64.sol#L687\r\n     */\r\n    function sqrt(uint x) internal pure returns (uint) {\r\n        if (x == 0) return 0;\r\n        uint xx = x;\r\n        uint r = 1;\r\n\r\n        if (xx >= 0x100000000000000000000000000000000) {\r\n            xx >>= 128;\r\n            r <<= 64;\r\n        }\r\n        if (xx >= 0x10000000000000000) {\r\n            xx >>= 64;\r\n            r <<= 32;\r\n        }\r\n        if (xx >= 0x100000000) {\r\n            xx >>= 32;\r\n            r <<= 16;\r\n        }\r\n        if (xx >= 0x10000) {\r\n            xx >>= 16;\r\n            r <<= 8;\r\n        }\r\n        if (xx >= 0x100) {\r\n            xx >>= 8;\r\n            r <<= 4;\r\n        }\r\n        if (xx >= 0x10) {\r\n            xx >>= 4;\r\n            r <<= 2;\r\n        }\r\n        if (xx >= 0x8) {\r\n            r <<= 1;\r\n        }\r\n\r\n        r = (r + x / r) >> 1;\r\n        r = (r + x / r) >> 1;\r\n        r = (r + x / r) >> 1;\r\n        r = (r + x / r) >> 1;\r\n        r = (r + x / r) >> 1;\r\n        r = (r + x / r) >> 1;\r\n        r = (r + x / r) >> 1; // Seven iterations should be enough\r\n        uint r1 = x / r;\r\n        return (r < r1 ? r : r1);\r\n    }\r\n}\r\n",
  "sourcePath": "C:/Users/david/Dropbox/Rari/v1/fuse-contracts/contracts/oracles/UniswapLpTokenPriceOracle.sol",
  "compiler": {
    "name": "solc",
    "version": "0.6.12+commit.27d51765.Emscripten.clang"
  },
  "schemaVersion": "3.3.3",
  "updatedAt": "2021-03-01T23:53:41.476Z",
  "devdoc": {
    "author": "David Lucid <david@rari.capital> (https://github.com/davidlucid)",
    "details": "Implements the `PriceOracle` interface used by Fuse pools (and Compound v2).",
    "kind": "dev",
    "methods": {
      "constructor": {
        "params": {
          "_useRootOracle": "Boolean indicating if `msg.sender` is to be used as the root oracle instead of using current Uniswap market conditions (be warned of security risks when not using a trusted root oracle)."
        }
      },
      "getUnderlyingPrice(address)": {
        "details": "Implements the PriceOracle interface for Fuse pools (and Compound v2).",
        "params": {
          "cToken": "The cToken address for price retrieval"
        },
        "returns": {
          "_0": "Price denominated in ETH, with 18 decimals, for the given cToken address"
        }
      },
      "price(address)": {
        "params": {
          "underlying": "The underlying token address for which to get the price (set to zero address for ETH)"
        },
        "returns": {
          "_0": "Price denominated in ETH (scaled by 1e18)"
        }
      }
    },
    "stateVariables": {
      "WETH_ADDRESS": {
        "details": "WETH contract address."
      },
      "useRootOracle": {
        "details": "Boolean indicating if `msg.sender` is to be used as the root oracle instead of using current Uniswap market conditions."
      }
    },
    "title": "UniswapLpTokenPriceOracle",
    "version": 1
  },
  "userdoc": {
    "kind": "user",
    "methods": {
      "constructor": "Constructor for the Uniswap LP token price oracle.",
      "getUnderlyingPrice(address)": {
        "notice": "Get the underlying price of a cToken"
      },
      "price(address)": {
        "notice": "Get the LP token price price for an underlying token address"
      }
    },
    "notice": "UniswapLpTokenPriceOracle is a price oracle for Uniswap (and SushiSwap) LP tokens.",
    "version": 1
  }
}