{
  "contractName": "UniswapTwapPriceOracleV2Factory",
  "abi": [
    {
      "inputs": [
        {
          "internalType": "address",
          "name": "_rootOracle",
          "type": "address"
        }
      ],
      "stateMutability": "nonpayable",
      "type": "constructor"
    },
    {
      "inputs": [],
      "name": "WETH",
      "outputs": [
        {
          "internalType": "address",
          "name": "",
          "type": "address"
        }
      ],
      "stateMutability": "view",
      "type": "function",
      "constant": true
    },
    {
      "inputs": [
        {
          "internalType": "address",
          "name": "",
          "type": "address"
        },
        {
          "internalType": "address",
          "name": "",
          "type": "address"
        }
      ],
      "name": "oracles",
      "outputs": [
        {
          "internalType": "contract UniswapTwapPriceOracleV2",
          "name": "",
          "type": "address"
        }
      ],
      "stateMutability": "view",
      "type": "function",
      "constant": true
    },
    {
      "inputs": [],
      "name": "rootOracle",
      "outputs": [
        {
          "internalType": "address",
          "name": "",
          "type": "address"
        }
      ],
      "stateMutability": "view",
      "type": "function",
      "constant": true
    },
    {
      "inputs": [
        {
          "internalType": "address",
          "name": "uniswapV2Factory",
          "type": "address"
        },
        {
          "internalType": "address",
          "name": "baseToken",
          "type": "address"
        }
      ],
      "name": "deploy",
      "outputs": [
        {
          "internalType": "address",
          "name": "",
          "type": "address"
        }
      ],
      "stateMutability": "nonpayable",
      "type": "function"
    }
  ],
  "bytecode": "0x60a060405234801561001057600080fd5b50604051610c14380380610c148339818101604052602081101561003357600080fd5b5051606081901b6001600160601b0319166080526001600160a01b0316610ba861006c6000398061017f52806103705250610ba86000f3fe608060405234801561001057600080fd5b506004361061004c5760003560e01c806352a03c0314610051578063545e7c611461009b578063ad5c4648146100c9578063e3cb23a5146100d1575b600080fd5b61007f6004803603604081101561006757600080fd5b506001600160a01b03813581169160200135166100d9565b604080516001600160a01b039092168252519081900360200190f35b61007f600480360360408110156100b157600080fd5b506001600160a01b03813581169160200135166100fc565b61007f610356565b61007f61036e565b60006020818152928152604080822090935290815220546001600160a01b031681565b60006001600160a01b0382166101245773c02aaa39b223fe8d0a0e5c4f27ead9083c756cc291505b6001600160a01b038084166000908152602081815260408083208685168452909152902054168015610157579050610350565b60606040518060200161016990610392565b6020820181038252601f19601f820116604052507f0000000000000000000000000000000000000000000000000000000000000000868660405160200180846001600160a01b03168152602001836001600160a01b03168152602001826001600160a01b0316815260200193505050506040516020818303038152906040526040516020018083805190602001908083835b6020831061021a5780518252601f1990920191602091820191016101fb565b51815160209384036101000a600019018019909216911617905285519190930192850191508083835b602083106102625780518252601f199092019160209182019101610243565b51815160209384036101000a60001901801990921691161790526040805192909401828103601f1901835280855260608d811b6bffffffffffffffffffffffff1990811683850152908d901b1660348201528451808203602801815260489091019094528351938101939093208151919750955060009450859350918601905083f59050803b610311577f4661696c656420746f206465706c6f79207072696365206f7261636c652e00006000fd5b6001600160a01b038781166000908152602081815260408083208a85168452909152902080546001600160a01b03191691831691909117905593505050505b92915050565b73c02aaa39b223fe8d0a0e5c4f27ead9083c756cc281565b7f000000000000000000000000000000000000000000000000000000000000000081565b6107d3806103a08339019056fe60e060405234801561001057600080fd5b506040516107d33803806107d38339818101604052606081101561003357600080fd5b50805160208201516040909201516001600160601b0319606083811b821660805284901b1660a0529091906001600160a01b038116156100735780610089565b73c02aaa39b223fe8d0a0e5c4f27ead9083c756cc25b6001600160601b031960609190911b1660c05250505060805160601c60a05160601c60c05160601c6106e16100f260003980610152528061037752806104425280610489528061051c525080610103528061039f52508061017652806103cc52506106e16000f3fe608060405234801561001057600080fd5b50600436106100625760003560e01c806359d0f71314610067578063ad5c46481461008b578063aea9107814610093578063c55dae63146100cb578063e3cb23a5146100d3578063fc57d4df146100db575b600080fd5b61006f610101565b604080516001600160a01b039092168252519081900360200190f35b61006f610125565b6100b9600480360360208110156100a957600080fd5b50356001600160a01b031661013d565b60408051918252519081900360200190f35b61006f610150565b61006f610174565b6100b9600480360360208110156100f157600080fd5b50356001600160a01b0316610198565b7f000000000000000000000000000000000000000000000000000000000000000081565b73c02aaa39b223fe8d0a0e5c4f27ead9083c756cc281565b600061014882610321565b90505b919050565b7f000000000000000000000000000000000000000000000000000000000000000081565b7f000000000000000000000000000000000000000000000000000000000000000081565b6000816001600160a01b031663ac784ddc6040518163ffffffff1660e01b815260040160206040518083038186803b1580156101d357600080fd5b505afa1580156101e7573d6000803e3d6000fd5b505050506040513d60208110156101fd57600080fd5b5051156102135750670de0b6b3a764000061014b565b6000826001600160a01b0316636f307dc36040518163ffffffff1660e01b815260040160206040518083038186803b15801561024e57600080fd5b505afa158015610262573d6000803e3d6000fd5b505050506040513d602081101561027857600080fd5b50516040805163313ce56760e01b815290519192506000916001600160a01b0384169163313ce567916004808301926020929190829003018186803b1580156102c057600080fd5b505afa1580156102d4573d6000803e3d6000fd5b505050506040513d60208110156102ea57600080fd5b505160ff16600a0a905061031981610313670de0b6b3a764000061030d86610321565b906105c1565b90610623565b949350505050565b60006001600160a01b03821673c02aaa39b223fe8d0a0e5c4f27ead9083c756cc214156103575750670de0b6b3a764000061014b565b6040805163b9b2e68f60e01b81526001600160a01b0384811660048301527f0000000000000000000000000000000000000000000000000000000000000000811660248301527f00000000000000000000000000000000000000000000000000000000000000008116604483015291516000927f0000000000000000000000000000000000000000000000000000000000000000169163b9b2e68f916064808301926020929190829003018186803b15801561041257600080fd5b505afa158015610426573d6000803e3d6000fd5b505050506040513d602081101561043c57600080fd5b505190507f00000000000000000000000000000000000000000000000000000000000000006001600160a01b031673c02aaa39b223fe8d0a0e5c4f27ead9083c756cc2146105b8576105b37f00000000000000000000000000000000000000000000000000000000000000006001600160a01b031663313ce5676040518163ffffffff1660e01b815260040160206040518083038186803b1580156104e057600080fd5b505afa1580156104f4573d6000803e3d6000fd5b505050506040513d602081101561050a57600080fd5b5051604080516315d5220f60e31b81527f00000000000000000000000000000000000000000000000000000000000000006001600160a01b03166004820152905160ff909216600a0a9161031391339163aea9107891602480820192602092909190829003018186803b15801561058057600080fd5b505afa158015610594573d6000803e3d6000fd5b505050506040513d60208110156105aa57600080fd5b505184906105c1565b6105ba565b805b9392505050565b6000826105d05750600061061d565b828202828482816105dd57fe5b041461061a5760405162461bcd60e51b815260040180806020018281038252602181526020018061068b6021913960400191505060405180910390fd5b90505b92915050565b6000808211610679576040805162461bcd60e51b815260206004820152601a60248201527f536166654d6174683a206469766973696f6e206279207a65726f000000000000604482015290519081900360640190fd5b81838161068257fe5b04939250505056fe536166654d6174683a206d756c7469706c69636174696f6e206f766572666c6f77a2646970667358221220e9111c9772b4d9b21107c9a16452314f9095f56c25b4ca60c1d3a0a75d01814164736f6c634300060c0033a264697066735822122046cdfed58a4c3b0ea1d8d0b638ac837b012b5699c10d586ffa7e1f46b4fd2b1a64736f6c634300060c0033",
  "immutableReferences": {
    "21587": [
      {
        "length": 32,
        "start": 383
      },
      {
        "length": 32,
        "start": 880
      }
    ]
  },
  "source": "// SPDX-License-Identifier: UNLICENSED\r\npragma solidity 0.6.12;\r\n\r\nimport \"./UniswapTwapPriceOracleV2.sol\";\r\n\r\n/**\r\n * @title UniswapTwapPriceOracleV2Factory\r\n * @notice Deploys and catalogs UniswapTwapPriceOracleV2 contracts.\r\n * @author David Lucid <david@rari.capital> (https://github.com/davidlucid)\r\n */\r\ncontract UniswapTwapPriceOracleV2Factory {\r\n    using SafeMathUpgradeable for uint256;\r\n\r\n    /**\r\n     * @dev Constructor that sets the `UniswapTwapPriceOracleV2Root`.\r\n     */\r\n    constructor (address _rootOracle) public {\r\n        rootOracle = _rootOracle;\r\n    }\r\n\r\n    /**\r\n     * @notice Deploys a `UniswapTwapPriceOracleV2`.\r\n     * @param uniswapV2Factory The `UniswapV2Factory` contract of the pairs for which this oracle will be used.\r\n     * @param baseToken The base token of the pairs for which this oracle will be used.\r\n     */\r\n    function deploy(address uniswapV2Factory, address baseToken) external returns (address) {\r\n        // Input validation\r\n        if (baseToken == address(0)) baseToken = address(WETH);\r\n\r\n        // Return existing oracle if present\r\n        address currentOracle = address(oracles[uniswapV2Factory][baseToken]);\r\n        if (currentOracle != address(0)) return currentOracle;\r\n\r\n        // Deploy oracle\r\n        bytes memory bytecode = abi.encodePacked(type(UniswapTwapPriceOracleV2).creationCode, abi.encode(rootOracle, uniswapV2Factory, baseToken));\r\n        bytes32 salt = keccak256(abi.encodePacked(uniswapV2Factory, baseToken));\r\n        address oracle;\r\n\r\n        assembly {\r\n            oracle := create2(0, add(bytecode, 0x20), mload(bytecode), salt)\r\n            if iszero(extcodesize(oracle)) {\r\n                revert(0, \"Failed to deploy price oracle.\")\r\n            }\r\n        }\r\n\r\n        // Set oracle in state\r\n        oracles[uniswapV2Factory][baseToken] = UniswapTwapPriceOracleV2(oracle);\r\n\r\n        // Return oracle address\r\n        return oracle;\r\n    }\r\n\r\n    /**\r\n     * @dev WETH token contract address.\r\n     */\r\n    address constant public WETH = 0xC02aaA39b223FE8D0A0e5C4F27eAD9083C756Cc2;\r\n\r\n    /**\r\n     * @dev `UniswapTwapPriceOracleV2Root` contract address.\r\n     */\r\n    address immutable public rootOracle;\r\n\r\n    /**\r\n     * @notice Maps `UniswapV2Factory` contracts to base tokens to `UniswapTwapPriceOracleV2` contract addresses.\r\n     */\r\n    mapping(address => mapping(address => UniswapTwapPriceOracleV2)) public oracles;\r\n}\r\n",
  "sourcePath": "C:/Users/david/Dropbox/Rari/v1/fuse-contracts/contracts/oracles/UniswapTwapPriceOracleV2Factory.sol",
  "compiler": {
    "name": "solc",
    "version": "0.6.12+commit.27d51765.Emscripten.clang"
  },
  "schemaVersion": "3.2.3",
  "updatedAt": "2021-09-27T02:26:24.125Z",
  "networkType": "ethereum",
  "devdoc": {
    "author": "David Lucid <david@rari.capital> (https://github.com/davidlucid)",
    "kind": "dev",
    "methods": {
      "constructor": {
        "details": "Constructor that sets the `UniswapTwapPriceOracleV2Root`."
      },
      "deploy(address,address)": {
        "params": {
          "baseToken": "The base token of the pairs for which this oracle will be used.",
          "uniswapV2Factory": "The `UniswapV2Factory` contract of the pairs for which this oracle will be used."
        }
      }
    },
    "stateVariables": {
      "WETH": {
        "details": "WETH token contract address."
      },
      "rootOracle": {
        "details": "`UniswapTwapPriceOracleV2Root` contract address."
      }
    },
    "title": "UniswapTwapPriceOracleV2Factory",
    "version": 1
  },
  "userdoc": {
    "kind": "user",
    "methods": {
      "deploy(address,address)": {
        "notice": "Deploys a `UniswapTwapPriceOracleV2`."
      },
      "oracles(address,address)": {
        "notice": "Maps `UniswapV2Factory` contracts to base tokens to `UniswapTwapPriceOracleV2` contract addresses."
      }
    },
    "notice": "Deploys and catalogs UniswapTwapPriceOracleV2 contracts.",
    "version": 1
  }
}