{
  "contractName": "UniswapTwapPriceOracleV2Factory",
  "abi": [
    {
      "inputs": [
        {
          "internalType": "address",
          "name": "_rootOracle",
          "type": "address"
        },
        {
          "internalType": "address",
          "name": "_logic",
          "type": "address"
        }
      ],
      "stateMutability": "nonpayable",
      "type": "constructor"
    },
    {
      "inputs": [],
      "name": "WETH",
      "outputs": [
        {
          "internalType": "address",
          "name": "",
          "type": "address"
        }
      ],
      "stateMutability": "view",
      "type": "function",
      "constant": true
    },
    {
      "inputs": [],
      "name": "logic",
      "outputs": [
        {
          "internalType": "address",
          "name": "",
          "type": "address"
        }
      ],
      "stateMutability": "view",
      "type": "function",
      "constant": true
    },
    {
      "inputs": [
        {
          "internalType": "address",
          "name": "",
          "type": "address"
        },
        {
          "internalType": "address",
          "name": "",
          "type": "address"
        }
      ],
      "name": "oracles",
      "outputs": [
        {
          "internalType": "contract UniswapTwapPriceOracleV2",
          "name": "",
          "type": "address"
        }
      ],
      "stateMutability": "view",
      "type": "function",
      "constant": true
    },
    {
      "inputs": [],
      "name": "rootOracle",
      "outputs": [
        {
          "internalType": "address",
          "name": "",
          "type": "address"
        }
      ],
      "stateMutability": "view",
      "type": "function",
      "constant": true
    },
    {
      "inputs": [
        {
          "internalType": "address",
          "name": "uniswapV2Factory",
          "type": "address"
        },
        {
          "internalType": "address",
          "name": "baseToken",
          "type": "address"
        }
      ],
      "name": "deploy",
      "outputs": [
        {
          "internalType": "address",
          "name": "",
          "type": "address"
        }
      ],
      "stateMutability": "nonpayable",
      "type": "function"
    }
  ],
  "bytecode": "0x60c060405234801561001057600080fd5b506040516104933803806104938339818101604052604081101561003357600080fd5b5080516020909101516001600160601b0319606092831b8116608052911b1660a05260805160601c60a05160601c61040b610088600039806101bc52806102ea5250806101f4528061030e525061040b6000f3fe608060405234801561001057600080fd5b50600436106100575760003560e01c806352a03c031461005c578063545e7c61146100a6578063ad5c4648146100d4578063d7dfa0dd146100dc578063e3cb23a5146100e4575b600080fd5b61008a6004803603604081101561007257600080fd5b506001600160a01b03813581169160200135166100ec565b604080516001600160a01b039092168252519081900360200190f35b61008a600480360360408110156100bc57600080fd5b506001600160a01b038135811691602001351661010f565b61008a6102d0565b61008a6102e8565b61008a61030c565b60006020818152928152604080822090935290815220546001600160a01b031681565b60006001600160a01b0382166101375773c02aaa39b223fe8d0a0e5c4f27ead9083c756cc291505b6001600160a01b03808416600090815260208181526040808320868516845290915290205416801561016a5790506102ca565b6000848460405160200180836001600160a01b031660601b8152601401826001600160a01b031660601b81526014019250505060405160208183030381529060405280519060200120905060006101e17f000000000000000000000000000000000000000000000000000000000000000083610330565b9050806001600160a01b031663c0c53b8b7f000000000000000000000000000000000000000000000000000000000000000088886040518463ffffffff1660e01b815260040180846001600160a01b03168152602001836001600160a01b03168152602001826001600160a01b031681526020019350505050600060405180830381600087803b15801561027457600080fd5b505af1158015610288573d6000803e3d6000fd5b505050506001600160a01b038681166000908152602081815260408083208985168452909152902080546001600160a01b031916918316919091179055925050505b92915050565b73c02aaa39b223fe8d0a0e5c4f27ead9083c756cc281565b7f000000000000000000000000000000000000000000000000000000000000000081565b7f000000000000000000000000000000000000000000000000000000000000000081565b6000604051733d602d80600a3d3981f3363d3d373d3d3d363d7360601b81528360601b60148201526e5af43d82803e903d91602b57fd5bf360881b6028820152826037826000f59150506001600160a01b0381166102ca576040805162461bcd60e51b815260206004820152601760248201527f455243313136373a2063726561746532206661696c6564000000000000000000604482015290519081900360640190fdfea264697066735822122054e37a3b93a02a9db86cd9ac3700b4d2f84eaa2625e3e2670875b0d0f9fc1c2864736f6c634300060c0033",
  "immutableReferences": {
    "21640": [
      {
        "length": 32,
        "start": 500
      },
      {
        "length": 32,
        "start": 782
      }
    ],
    "21643": [
      {
        "length": 32,
        "start": 444
      },
      {
        "length": 32,
        "start": 746
      }
    ]
  },
  "source": "// SPDX-License-Identifier: UNLICENSED\r\npragma solidity 0.6.12;\r\n\r\nimport \"@openzeppelin/contracts-upgradeable/proxy/ClonesUpgradeable.sol\";\r\n\r\nimport \"./UniswapTwapPriceOracleV2.sol\";\r\n\r\n/**\r\n * @title UniswapTwapPriceOracleV2Factory\r\n * @notice Deploys and catalogs UniswapTwapPriceOracleV2 contracts.\r\n * @author David Lucid <david@rari.capital> (https://github.com/davidlucid)\r\n */\r\ncontract UniswapTwapPriceOracleV2Factory {\r\n    /**\r\n     * @dev WETH token contract address.\r\n     */\r\n    address constant public WETH = 0xC02aaA39b223FE8D0A0e5C4F27eAD9083C756Cc2;\r\n\r\n    /**\r\n     * @dev `UniswapTwapPriceOracleV2Root` contract address.\r\n     */\r\n    address immutable public rootOracle;\r\n\r\n    /**\r\n     * @dev Implementation address for the `UniswapV3TwapPriceOracleV2`.\r\n     */\r\n    address immutable public logic;\r\n\r\n    /**\r\n     * @notice Maps `UniswapV2Factory` contracts to base tokens to `UniswapTwapPriceOracleV2` contract addresses.\r\n     */\r\n    mapping(address => mapping(address => UniswapTwapPriceOracleV2)) public oracles;\r\n\r\n    /**\r\n     * @dev Constructor that sets the `UniswapTwapPriceOracleV2Root` and oracle implementation contract.\r\n     */\r\n    constructor (address _rootOracle, address _logic) public {\r\n        rootOracle = _rootOracle;\r\n        logic = _logic;\r\n    }\r\n\r\n    /**\r\n     * @notice Deploys a `UniswapTwapPriceOracleV2`.\r\n     * @param uniswapV2Factory The `UniswapV2Factory` contract of the pairs for which this oracle will be used.\r\n     * @param baseToken The base token of the pairs for which this oracle will be used.\r\n     */\r\n    function deploy(address uniswapV2Factory, address baseToken) external returns (address) {\r\n        // Input validation\r\n        if (baseToken == address(0)) baseToken = address(WETH);\r\n\r\n        // Return existing oracle if present\r\n        address currentOracle = address(oracles[uniswapV2Factory][baseToken]);\r\n        if (currentOracle != address(0)) return currentOracle;\r\n\r\n        // Deploy oracle\r\n        bytes32 salt = keccak256(abi.encodePacked(uniswapV2Factory, baseToken));\r\n        address oracle = ClonesUpgradeable.cloneDeterministic(logic, salt);\r\n        UniswapTwapPriceOracleV2(oracle).initialize(rootOracle, uniswapV2Factory, baseToken);\r\n\r\n        // Set oracle in state\r\n        oracles[uniswapV2Factory][baseToken] = UniswapTwapPriceOracleV2(oracle);\r\n\r\n        // Return oracle address\r\n        return oracle;\r\n    }\r\n}\r\n",
  "sourcePath": "C:/Users/david/Dropbox/Rari/v1/fuse-contracts/contracts/oracles/UniswapTwapPriceOracleV2Factory.sol",
  "compiler": {
    "name": "solc",
    "version": "0.6.12+commit.27d51765.Emscripten.clang"
  },
  "schemaVersion": "3.2.3",
  "updatedAt": "2021-10-01T19:52:47.351Z",
  "networkType": "ethereum",
  "devdoc": {
    "author": "David Lucid <david@rari.capital> (https://github.com/davidlucid)",
    "kind": "dev",
    "methods": {
      "constructor": {
        "details": "Constructor that sets the `UniswapTwapPriceOracleV2Root` and oracle implementation contract."
      },
      "deploy(address,address)": {
        "params": {
          "baseToken": "The base token of the pairs for which this oracle will be used.",
          "uniswapV2Factory": "The `UniswapV2Factory` contract of the pairs for which this oracle will be used."
        }
      }
    },
    "stateVariables": {
      "WETH": {
        "details": "WETH token contract address."
      },
      "logic": {
        "details": "Implementation address for the `UniswapV3TwapPriceOracleV2`."
      },
      "rootOracle": {
        "details": "`UniswapTwapPriceOracleV2Root` contract address."
      }
    },
    "title": "UniswapTwapPriceOracleV2Factory",
    "version": 1
  },
  "userdoc": {
    "kind": "user",
    "methods": {
      "deploy(address,address)": {
        "notice": "Deploys a `UniswapTwapPriceOracleV2`."
      },
      "oracles(address,address)": {
        "notice": "Maps `UniswapV2Factory` contracts to base tokens to `UniswapTwapPriceOracleV2` contract addresses."
      }
    },
    "notice": "Deploys and catalogs UniswapTwapPriceOracleV2 contracts.",
    "version": 1
  }
}