{
  "contractName": "YVaultV1PriceOracle",
  "abi": [
    {
      "inputs": [
        {
          "internalType": "contract CToken",
          "name": "cToken",
          "type": "address"
        }
      ],
      "name": "getUnderlyingPrice",
      "outputs": [
        {
          "internalType": "uint256",
          "name": "",
          "type": "uint256"
        }
      ],
      "stateMutability": "view",
      "type": "function"
    }
  ],
  "bytecode": "0x608060405234801561001057600080fd5b5061047d806100206000396000f3fe608060405234801561001057600080fd5b506004361061002b5760003560e01c8063fc57d4df14610030575b600080fd5b6100566004803603602081101561004657600080fd5b50356001600160a01b0316610068565b60408051918252519081900360200190f35b600080826001600160a01b0316636f307dc36040518163ffffffff1660e01b815260040160206040518083038186803b1580156100a457600080fd5b505afa1580156100b8573d6000803e3d6000fd5b505050506040513d60208110156100ce57600080fd5b505160408051637e062a3560e11b815290519192506000916001600160a01b0384169163fc0c546a916004808301926020929190829003018186803b15801561011657600080fd5b505afa15801561012a573d6000803e3d6000fd5b505050506040513d602081101561014057600080fd5b50519050600073c02aaa39b223fe8d0a0e5c4f27ead9083c756cc26001600160a01b038316146101e157604080516315d5220f60e31b81526001600160a01b03841660048201529051339163aea91078916024808301926020929190829003018186803b1580156101b057600080fd5b505afa1580156101c4573d6000803e3d6000fd5b505050506040513d60208110156101da57600080fd5b50516101eb565b670de0b6b3a76400005b90506102dc836001600160a01b031663313ce5676040518163ffffffff1660e01b815260040160206040518083038186803b15801561022957600080fd5b505afa15801561023d573d6000803e3d6000fd5b505050506040513d602081101561025357600080fd5b505160408051631df1ee3f60e21b8152905160ff909216600a0a916102d69185916001600160a01b038916916377c7b8fc916004808301926020929190829003018186803b1580156102a457600080fd5b505afa1580156102b8573d6000803e3d6000fd5b505050506040513d60208110156102ce57600080fd5b5051906102e5565b90610347565b95945050505050565b6000826102f457506000610341565b8282028284828161030157fe5b041461033e5760405162461bcd60e51b81526004018080602001828103825260218152602001806104276021913960400191505060405180910390fd5b90505b92915050565b600061033e83836040518060400160405280601a81526020017f536166654d6174683a206469766973696f6e206279207a65726f000000000000815250600081836104105760405162461bcd60e51b81526004018080602001828103825283818151815260200191508051906020019080838360005b838110156103d55781810151838201526020016103bd565b50505050905090810190601f1680156104025780820380516001836020036101000a031916815260200191505b509250505060405180910390fd5b50600083858161041c57fe5b049594505050505056fe536166654d6174683a206d756c7469706c69636174696f6e206f766572666c6f77a264697066735822122055501cb99f1b2b88f92faab933ca5dd27520a10308b80e9daf535c4120813e4664736f6c634300060c0033",
  "immutableReferences": {},
  "source": "pragma solidity 0.6.12;\r\n\r\nimport \"@openzeppelin/contracts-upgradeable/math/SafeMathUpgradeable.sol\";\r\n\r\nimport \"../external/compound/PriceOracle.sol\";\r\nimport \"../external/compound/CErc20.sol\";\r\n\r\nimport \"../external/yearn/IVault.sol\";\r\n\r\nimport \"./BasePriceOracle.sol\";\r\n\r\n/**\r\n * @title YVaultV1PriceOracle\r\n * @notice Returns prices for yVaults using the sender as a root oracle.\r\n * @dev Implements the `PriceOracle` interface.\r\n * @author David Lucid <david@rari.capital> (https://github.com/davidlucid)\r\n */\r\ncontract YVaultV1PriceOracle is PriceOracle {\r\n    using SafeMathUpgradeable for uint256;\r\n\r\n    /**\r\n     * @dev Returns the price in ETH of the token underlying `cToken` (implements `PriceOracle`).\r\n     */\r\n    function getUnderlyingPrice(CToken cToken) external override view returns (uint) {\r\n        // Get price of token underlying yVault\r\n        IVault yVault = IVault(CErc20(address(cToken)).underlying());\r\n        address underlyingToken = yVault.token();\r\n        uint underlyingPrice = underlyingToken == 0xC02aaA39b223FE8D0A0e5C4F27eAD9083C756Cc2 ? 1e18 : BasePriceOracle(msg.sender).price(underlyingToken);\r\n\r\n        // yVault/ETH = yVault/token * token/ETH\r\n        return yVault.getPricePerFullShare().mul(underlyingPrice).div(10 ** uint256(yVault.decimals()));\r\n    }\r\n}\r\n",
  "sourcePath": "C:/Users/david/Dropbox/Rari/v1/fuse-contracts/contracts/oracles/YVaultV1PriceOracle.sol",
  "compiler": {
    "name": "solc",
    "version": "0.6.12+commit.27d51765.Emscripten.clang"
  },
  "schemaVersion": "3.3.3",
  "updatedAt": "2021-03-01T23:53:41.483Z",
  "devdoc": {
    "author": "David Lucid <david@rari.capital> (https://github.com/davidlucid)",
    "details": "Implements the `PriceOracle` interface.",
    "kind": "dev",
    "methods": {
      "getUnderlyingPrice(address)": {
        "details": "Returns the price in ETH of the token underlying `cToken` (implements `PriceOracle`)."
      }
    },
    "title": "YVaultV1PriceOracle",
    "version": 1
  },
  "userdoc": {
    "kind": "user",
    "methods": {},
    "notice": "Returns prices for yVaults using the sender as a root oracle.",
    "version": 1
  }
}